:100000000C94D9130C9404140C9404140C9404143C
:100010000C9404140C9404140C9404140C94041400
:100020000C9404140C9404140C9404140C940414F0
:100030000C9404140C94A44F0C9404140C94041405
:100040000C9404140C94DC4E0C9494C20C94041480
:100050000C942D4D0C94574D0C9404140C940414D2
:100060000C9404140C9404140C9404140C940414B0
:100070000C9404140C9404140C9404140C940414A0
:100080000C9404140C9404140C9404144F9B7D9B46
:10009000AB9BAF9C87AB87AB87AB87AB87AB87ABA3
:1000A00087AB87AB87ABDA9B1F9C669C87AB87AB24
:1000B00087AB87AB87AB87AB87AB87AB87AB87ABB0
:1000C00087AB369F979FF79F58A0B9A01AA17BA135
:1000D000FFA188A683A2FBA273A3E8A35CA4D0A47B
:1000E00044A5B0A51CA687AB87AB87AB87AB87AB16
:1000F000049E6C9E87ABDFA653A7C2A738A860A852
:10010000B6A8F3A830A98FA9F0A94FAAAEAADAAA77
:1001100088A887AB87AB87AB87AB87AB87AB87AB51
:1001200087AB87AB87AB87AB87AB989DCD9D87AB04
:1001300087AB87AB87AB87AB87AB87AB87AB87AB2F
:1001400087AB2B9E87AB87AB87AB13AB50AB87AB33
:1001500087AB87AB87AB419B87AB87ABF29C2B9D73
:10016000789DD19E084AD73B3BCE016E84BCBFFD33
:10017000C12F3D6C74319ABD56833DDA3D00C77F77
:1001800011BED9E4BB4C3E916BAAAABE0000008010
:100190003F05A84CCDB2D44EB93836A9020C50B99F
:1001A000918688083CA6AAAA2ABE000000803F00CB
:1001B0000001000F0015000E001200FEFF160017D0
:1001C000000E001300FFFF030002001A001400FFDE
:1001D000FF1B00FFFF0D000C000400010000000EDB
:1001E00000070006001F00536574204D6963726F9D
:1001F0007374657070696E670048656174696E67D5
:10020000204265640048656174696E6720457874B2
:100210007275646572004649524D574152455F4EB2
:10022000414D453A52657065746965725F2020687A
:100230007474703A2F2F6F6D6E6933642E313638B7
:10024000382E636F6D2F2050524F544F434F4C5FE9
:1002500056455253494F4E3A312E30204D41434876
:10026000494E455F545950453A4D656E64656C2062
:1002700045585452554445525F434F554E543A31B8
:100280002052455045544945525F50524F544F43B8
:100290004F4C3A320044656275673A006F6B000D4F
:1002A0000A004E414E00494E46004572726F723A46
:1002B00000496E666F3A005761726E696E673A0068
:1002C000526573656E643A004563686F3A006F6B00
:1002D000200057726F6E6720636865636B73756D7E
:1002E000004D697373696E6720636865636B73752E
:1002F0006D00466F726D6174206572726F7200449A
:100300006F6E65207072696E74696E672066696CC5
:100310006500205800205900205A00204500204642
:1003200000205300205000204900204A00205200A5
:1003300053442072656164206572726F7200457269
:10034000726F723A6578706563746564206C696E6B
:1003500065200020676F742000736B697020004275
:100360004C4B2000737461727400506F7765725546
:10037000700045787465726E616C205265736574A7
:100380000042726F776E206F7574205265736574CA
:10039000005761746368646F672052657365740009
:1003A000536F66747761726520526573657400558A
:1003B0006E6B6E6F776E20636F6D6D616E643A0069
:1003C000467265652052414D3A00583A0020583A2D
:1003D0000020593A00205A3A0020453A00543A0089
:1003E00020423A0020403A002054002040002042A1
:1003F000403A0020524157003A002F00202F00536E
:10040000706565644D756C7469706C793A00466C02
:100410006F774D756C7469706C793A0046616E73D4
:10042000706565643A005072696E7465642066692F
:100430006C616D656E743A005072696E74696E67B6
:100440002074696D653A006D200020646179732025
:100450000020686F7572732000206D696E00496E10
:1004600076616C696420617263002C002000593A47
:10047000005A3A0045303A0045313A004D53312C8C
:100480004D53322050696E7300536574206F75743C
:10049000707574200020746F20004820004C2000EC
:1004A000785F6D696E3A00785F6D61783A00795FC8
:1004B0006D696E3A00795F6D61783A007A5F6D69B7
:1004C0006E3A007A5F6D61783A004A65726B3A0065
:1004D000205A4A65726B3A00206C696E6561722021
:1004E00073746570733A0020717561647261746928
:1004F000632073746570733A002C207370656564B3
:100500003D00454550524F4D2075706461746564DF
:10051000006C696E656172204C3A002071756164EF
:100520007261746963204B3A005461726765744567
:10053000787472005461726765744265643A005061
:100540004944204175746F74756E652073746172CF
:10055000740020626961733A200020643A20002010
:100560006D696E3A2000206D61783A2000204B754D
:100570003A20002054753A200020436C617373695F
:10058000632050494400204B703A2000204B693AC8
:100590002000204B643A2000504944204175746F7C
:1005A00074756E65206661696C6564212054656DA3
:1005B000706572617475726520746F206869676810
:1005C00000504944204175746F74756E65206661F2
:1005D000696C6564212074696D656F75740050499C
:1005E00044204175746F74756E652066696E697319
:1005F000686564202120506C616365207468652003
:100600004B702C204B6920616E64204B6420636F1B
:100610006E7374616E747320696E20746865204314
:100620006F6E66696775726174696F6E2E68206F90
:100630007220454550524F4D004D54454D503A00A3
:1006400068656174656420626564006578747275BC
:1006500064657220003A2074656D702073656E7356
:100660006F7220646566656374003A20776F726B01
:10067000696E67005072696E7465722073657420CC
:10068000696E746F206472792072756E206D6F646C
:100690006520756E74696C20726573746172742163
:1006A000004175746F6C6576656C696E6720656E68
:1006B00061626C6564004175746F6C6576656C6928
:1006C0006E672064697361626C6564005A2D707294
:1006D0006F6265206661696C6564005A2D70726F87
:1006E0006265206D61783A005072696E746572209F
:1006F0006865696768743A00776169740041757468
:100700006F6C6576656C206163746976652028314D
:100710002F302900436F6E66696775726174696F67
:100720006E2073746F72656420746F20454550525B
:100730004F4D2E00436F6E66696775726174696F05
:100740006E206C6F616465642066726F6D20454534
:1007500050524F4D2E00436F6E666967757261741B
:10076000696F6E20726573657420746F20646566AE
:1007700061756C74732E0050726F746F636F6C20B0
:1007800076657273696F6E206368616E6765642C4D
:1007900020757067726164696E6700457874722EA7
:1007A000004550523A3020004550523A3120004521
:1007B00050523A3220004550523A3320004261757F
:1007C00064726174650046696C616D656E74207059
:1007D00072696E746564205B6D5D005072696E7441
:1007E000657220616374697665205B735D004D619D
:1007F000782E20696E6163746976652074696D6511
:10080000205B6D732C303D6F66665D0053746F70B6
:1008100020737465707065722061667465722069FA
:100820006E6163746976697479205B6D732C303DF9
:100830006F66665D005820686F6D6520706F73206D
:100840005B6D6D5D005920686F6D6520706F732062
:100850005B6D6D5D005A20686F6D6520706F732051
:100860005B6D6D5D0058206D6178206C656E6774FE
:1008700068205B6D6D5D0059206D6178206C656E40
:10088000677468205B6D6D5D005A206D6178206C27
:10089000656E677468205B6D6D5D005820626163F2
:1008A0006B6C617368205B6D6D5D005920626163E4
:1008B0006B6C617368205B6D6D5D005A20626163D3
:1008C0006B6C617368205B6D6D5D004D61782E20EF
:1008D0006A65726B205B6D6D2F735D004D61782EC4
:1008E000205A2D6A65726B205B6D6D2F735D005809
:1008F0002D61786973207374657073207065722040
:100900006D6D00592D617869732073746570732063
:10091000706572206D6D005A2D6178697320737453
:1009200065707320706572206D6D00582D61786957
:1009300073206D61782E2066656564726174652030
:100940005B6D6D2F735D00592D61786973206D614A
:10095000782E206665656472617465205B6D6D2F0D
:10096000735D005A2D61786973206D61782E206661
:1009700065656472617465205B6D6D2F735D0058F1
:100980002D6178697320686F6D696E672066656593
:100990006472617465205B6D6D2F735D00592D610C
:1009A00078697320686F6D696E672066656564722B
:1009B000617465205B6D6D2F735D005A2D617869E0
:1009C0007320686F6D696E67206665656472617417
:1009D00065205B6D6D2F735D00582D617869732004
:1009E000616363656C65726174696F6E205B6D6DC8
:1009F0002F735E325D00592D6178697320616363E6
:100A0000656C65726174696F6E205B6D6D2F735ECE
:100A1000325D005A2D6178697320616363656C658E
:100A2000726174696F6E205B6D6D2F735E325D0055
:100A3000582D617869732074726176656C206163EA
:100A400063656C65726174696F6E205B6D6D2F7389
:100A50005E325D00592D617869732074726176652C
:100A60006C20616363656C65726174696F6E205B95
:100A70006D6D2F735E325D005A2D6178697320743D
:100A8000726176656C20616363656C65726174691F
:100A90006F6E205B6D6D2F735E325D004F50532083
:100AA0006F7065726174696F6E206D6F6465205B35
:100AB000303D4F66662C313D436C61737369632C26
:100AC000323D466173745D004F5053206D6F766503
:100AD0002061667465722078252072657472616386
:100AE00074205B255D004F5053206D696E2E20648D
:100AF000697374616E636520666F722066696C2E1F
:100B00002072657472616374696F6E205B6D6D5DD8
:100B1000004F50532072657472616374696F6E2068
:100B20006C656E677468205B6D6D5D004F5053207F
:100B300072657472616374696F6E206261636B6C5D
:100B4000617368205B6D6D5D00426564204865617E
:100B500074204D616E61676572205B302D335D00DE
:100B600042656420504944206472697665206D6155
:100B7000780042656420504944206472697665209B
:100B80006D696E004265642050494420502D6761B4
:100B9000696E004265642050494420492D676169AF
:100BA0006E004265642050494420442D6761696E9F
:100BB0000042656420504944206D61782076616C64
:100BC0007565205B302D3235355D0073746570734B
:100BD00020706572206D6D006D61782E20666565F0
:100BE0006472617465205B6D6D2F735D0073746159
:100BF0007274206665656472617465205B6D6D2F2B
:100C0000735D00616363656C65726174696F6E200A
:100C10005B6D6D2F735E325D0068656174206D6180
:100C20006E61676572205B302D335D005049442052
:100C30006472697665206D61780050494420647261
:100C4000697665206D696E0050494420502D6761BA
:100C5000696E2F646561642D74696D650050494447
:100C600020492D6761696E0050494420442D676119
:100C7000696E00504944206D61782076616C75651D
:100C8000205B302D3235355D00582D6F66667365FB
:100C900074205B73746570735D00592D6F666673A5
:100CA0006574205B73746570735D0074656D702E80
:100CB0002073746162696C697A652074696D65205E
:100CC0005B735D0074656D702E20666F72207265B7
:100CD0007472616374696F6E207768656E206865F1
:100CE0006174696E67205B435D0064697374616E53
:100CF000636520746F207265747261637420776815
:100D0000656E2068656174696E67205B6D6D5D005E
:100D1000657874727564657220636F6F6C6572209C
:100D20007370656564205B302D3235355D0061641C
:100D300076616E6365204B205B303D6F66665D00BB
:100D4000616476616E6365204C205B303D6F666642
:100D50005D00534420436172642072656D6F766557
:100D600064005344204361726420696E7365727439
:100D7000656400534420696E6974206661696C0083
:100D80006572726F722077726974696E6720746F12
:100D90002066696C6500426567696E2066696C65EE
:100DA000206C69737400456E642066696C65206C04
:100DB0006973740046696C65206F70656E65643A8E
:100DC000002053697A653A0046696C652073656C4A
:100DD00065637465640066696C652E6F70656E206E
:100DE0006661696C6564005344207072696E746951
:100DF0006E67206279746520004E6F742053442022
:100E00007072696E74696E67006F70656E206661DE
:100E1000696C65642C2046696C653A2000577269DC
:100E200074696E6720746F2066696C653A200044AF
:100E30006F6E6520736176696E672066696C652EDA
:100E40000046696C652064656C6574656400446582
:100E50006C6574696F6E206661696C6564004469D5
:100E6000726563746F727920637265617465640082
:100E70004372656174696F6E206661696C656400B8
:100E80005344206572726F72436F64653A000701C4
:100E9000061C151C143A00002243141F1FB70E270E
:100EA0000F7B0FEB0F3B10000000002311AB11B7BD
:100EB000120713831300000000A00F5C0060096993
:100EC0000010097900C0088C007008A2002008BD3D
:100ED00000D007DE008007050130073401E0066D11
:100EE000019006B20140060702F0056D02A005E878
:100EF0000250057B0300052B04B004F8046004EBEA
:100F000006C003350920037F0B8002650DE001B0A8
:100F10000E40011D0FF000480FC8006C0FA000ED3F
:100F20000F60FFFE0F48FE0400801AD8009808AC3E
:100F3000012007800250065403C80528045805FC08
:100F4000040005D005B004A4066804780728044C02
:100F500008E8032009B003F4097003C80A38039CA9
:100F60000BF802700CB002440D6802180E0802EC77
:100F70000E8801C00F8800F00F00000400001B5411
:100F8000006009640010097400C008840070089CA7
:100F9000002008B800D007D8008007000130072CD7
:100FA00001E00668019006AC0140060002F0056809
:100FB00002A005E0025005740300052404B004F00B
:100FC000046004DC051004E406C003040870033068
:100FD000092003780B8002600DE001A80E40016833
:100FE0000FA000C00F0000E80F60FF0400700DD8D4
:100FF000004804AC0158038002D802540380022840
:10100000043802FC040002D005C801A40698017847
:101010000770014C08480120091801F409F000C8C4
:101020000AC8009C0BA000700C7000440D3800181A
:101030000E0000EC0EA8FFC00FE8FE380060093B70
:10104000003809400010094600E8084C00C008526A
:1010500000980859007008620048086C0020087663
:1010600000F8078000D0079100A8079C008007A81F
:10107000005807BB003007D0000807E300E006F87F
:1010800000B806100190062D016806500140067256
:101090000118069001F005C201C805EC01A0052861
:1010A00002780567025005B2022805EE0200053EEF
:1010B00003D8049803B004F20388045E046004BFFC
:1010C00004380432051004B405E8033A06C003D816
:1010D0000698036C077003F807480398082003BEBE
:1010E0000AF802D409D0026F0AA8020F0B80029FEF
:1010F0000B58022B0C3002B30C08022F0DE00198A4
:101100000DB801FC0D90014C0E68019C0E40011DB4
:101110000FF000480FC8006C0FA000ED0F60FFFE3D
:101120000F48FE0000401F450060094F0010095C99
:1011300000C0086B0070087D0020089200D007AC4A
:10114000008007CC003007DE00E006230190065E39
:10115000014006A601F005FF01A0056D025005F350
:101160000200059603B0045A0460044005100448C8
:1011700006C0036E077003A8082003EB09D0022302
:101180000B8002410C3002390DE001040E9001A2E7
:101190000E4001170FF000690FA000A20F5000C60B
:1011A0000F0000DD0FB0FFEB0F60FF0400681D4C67
:1011B00000500B94005809DC0050082401A8076C6B
:1011C000012807B401C006FC017006440228068C01
:1011D00002F005D402B8051C03880564035805AC69
:1011E000033005F40310053C04E8048404C804CC6F
:1011F00004A804140590045C057004A4055804ECCC
:10120000053804340620047C060804C406F0030CE8
:1012100007D8035407C8039C07B003E40798032CBE
:1012200008800374087003BC085803040948034C81
:1012300009300394091803DC090803240AF0026C3E
:101240000AE002B40AC802FC0AB002440BA0028CF5
:101250000B8802D40B70021C0C5802640C4002ACC8
:101260000C2802F40C10023C0DF001840DD801CCC6
:101270000DB801140E98015C0E7001A40E4801EC2B
:101280000E1801340FD8007C0F8800C40F0800FC32
:101290000F0000000000000000000000000000003F
:1012A000000000000000000000000000000000003E
:1012B0000000000000000004000016D800C006ACCA
:1012C0000178058002C004540348042804E803FCA4
:1012D000049803D0055003A40618037807D8024CDD
:1012E00008A80220097002F4093802C80A08029C02
:1012F0000BD001700C9001440D5001180EF800EC59
:101300000E8800C00F00000400401D900060091C02
:1013100001B007A801D00634023806C002C8054C47
:10132000036805D80318056404D804F00498047C05
:1013300005600408063004940600042007D003ACBE
:1013400007A80338088003C408580350093003DC99
:10135000090803680AE002F40AB802800B88020C4C
:101360000C6002980C3002240DF801B00DC0013C55
:101370000E8001C80E3001540FB800B40F2800E0F1
:101380000F00000400081D900058091C01B007A8B8
:1013900001C80634023006C002C0054C036805D8F7
:1013A0000318056404D004F00498047C0560040864
:1013B000063004940600042007D003AC07A80338C5
:1013C000088003C408580350093003DC0908036887
:1013D0000AD802F40AB002800B88020C0C60029852
:1013E0000C3002240DF801B00DC0013C0E8001C884
:1013F0000E3001540FB800B40F2800E00F00005366
:1014000044206572726F7220666978656400534487
:10141000206572726F7220646964206E6F7420722E
:1014200065636F76657221005344205265616420C4
:101430004572726F720042696E6172793A00436F51
:101440006D6D616E64427566666572000000000035
:1014500000000000000000000000000024F403D998
:1014600050C38EB1C2A23D96828B3582127AE3724E
:10147000816CCB66A861015DC758EB546151204E69
:101480001E4B5648C14559431A41013F093D2F3B68
:101490007139CD374036C93465331432D430A32F77
:1014A000802E6B2D632C672B752A8E29B028DC27A4
:1014B00010274B268F25D9242B248223E022432278
:1014C000AC211A218D200420801F001F841E0C1EB9
:1014D000971D261DB81C4E1CE61B821B201BC11A23
:1014E000641A0A1AB2195D190A19B9186A181C186F
:1014F000D11788174017FA16B51673163116F1155D
:10150000B31576153A150015C7148F145814221404
:10151000EE13BA13881356132513F612C712991235
:101520006C1240121512EB11C11198117011481173
:101530002111FB10D610B1108D1069104610241027
:101540000210E10FC00FA00F800F610F420F230F99
:10155000060FE80ECB0EAF0E930E770E5C0E410E0B
:10156000270E0D0EF30DDA0DC10DA80D900D780D9F
:10157000600D490D320D1B0D050DEF0CD90CC30C80
:10158000AE0C990C850C700C5C0C480C350C210CC5
:101590000E0CFB0BE80BD60BC40BB20BA00B8E0B87
:1015A0007D0B6B0B5A0B4A0B390B290B180B080BD5
:1015B000F80AE90AD90ACA0ABB0AAC0A9D0A8E0AC5
:1015C000800A710A630A550A470A390A2C0A1E0A58
:1015D000110A040AF709EA09DD09D009C409B709A3
:1015E000AB099F09920987097B096F0963095809AB
:1015F0004C09410936092B09200915090A09000976
:10160000F508EB08E008D608CC08C208B808AE0810
:10161000A4089A08900887087D0874086B08610878
:1016200058084F0846083D0834082C0823081A08B3
:10163000120809080108F807F007E807E007D807CB
:10164000D007C807C007B807B007A807A107000060
:10165000420FA1071605D0030D038B022E02E801ED
:10166000B2018601630145012C0117010401F40058
:1016700049646C6500486F6D65205A00486F6D6560
:10168000205900486F6D652058005374657070656F
:10169000722044697361626C6564004B696C6C65AF
:1016A000640055706C6F6164696E672E2E2E005356
:1016B00044207072696E742073746F70706564205A
:1016C000627920757365722E0046696E6420696EBA
:1016D00069742E672066696C6520696E20534443E7
:1016E0004152442C20737461727420746F207072A4
:1016F000696E742E2E2E000000211042206330846B
:1017000040A550C660E770088129914AA16BB18C51
:10171000C1ADD1CEE1EFF13112100273325222B5D8
:10172000529442F772D662399318837BB35AA3BDA1
:10173000D39CC3FFF3DEE36224433420040114E6A8
:1017400064C774A44485546AA54BB528850995EEF1
:10175000E5CFF5ACC58DD55336722611163006D7B8
:1017600076F6669556B4465BB77AA719973887DF41
:10177000F7FEE79DD7BCC7C448E5588668A7784000
:1017800008611802282338CCC9EDD98EE9AFF94891
:101790008969990AA92BB9F55AD44AB77A966A7118
:1017A0001A500A333A122AFDDBDCCBBFFB9EEB79E1
:1017B0009B588B3BBB1AABA66C877CE44CC55C2268
:1017C0002C033C600C411CAEED8FFDECCDCDDD2A31
:1017D000AD0BBD688D499D977EB66ED55EF44E13F8
:1017E0003E322E511E700E9FFFBEEFDDDFFCCF1B81
:1017F000BF3AAF599F788F8891A981CAB1EBA10CEC
:10180000D12DC14EF16FE18010A100C230E3200460
:1018100050254046706760B9839893FBA3DAB33DC7
:10182000C31CD37FE35EF3B1029012F322D23235B0
:1018300042145277625672EAB5CBA5A89589856E97
:10184000F54FE52CD50DC5E234C324A01481046600
:1018500074476424540544DBA7FAB79987B8975FA7
:10186000E77EF71DC73CD7D326F2369106B0165750
:10187000667676154634564CD96DC90EF92FE9C8EF
:1018800099E9898AB9ABA94458654806782768C0A0
:1018900018E1088238A3287DCB5CDB3FEB1EFBF907
:1018A0008BD89BBBAB9ABB754A545A376A167AF1F0
:1018B0000AD01AB32A923A2EFD0FED6CDD4DCDAA57
:1018C000BD8BADE89DC98D267C076C645C454CA240
:1018D0003C832CE01CC10C1FEF3EFF5DCF7CDF9BE7
:1018E000AFBABFD98FF89F176E367E554E745E9390
:1018F0002EB23ED10EF01E7C3C3E5E2B3D3F2F5B58
:101900005D3B2C2A225C004E6F206572726F722044
:10191000666F756E642E0043616E2774206F70656C
:101920006E20726F6F74206469726563746F727970
:101930002E00496E76616C696420666F726D617409
:101940002C207265666F726D61742053442E004EB8
:101950006F20636172642C2077726F6E67206368FA
:1019600069702073656C6563742070696E2C206FDC
:1019700072205350492070726F626C656D3F004356
:10198000616E277420616363657373205344206321
:101990006172642E20446F206E6F74207265666FD2
:1019A000726D61742E000001FF00FF000001010054
:1019B00000FF00FF0100416374696F6E3A256C619E
:1019C0000003102702008D1B0310270200911B014A
:1019D00000000100951B0200000800971B03ED03A7
:1019E0000400A71B03EE030400AF1B03EF03040076
:1019F000B71B03FA030400BF1B03FB030400C71B50
:101A000003FC030400CF1B0200000900D71B0200E7
:101A1000000600E91B0200000C00F51B5265717501
:101A200065737450617573653A004E6F205344209E
:101A30004361726400436F6F6C646F776E00507225
:101A40006568656174204142530050726568656144
:101A50007420504C41008025000040380000004BAD
:101A600000008070000000960000C0DA000000E175
:101A70000000002C010008B2010000C2010000F4C7
:101A800001000084030090D0030000E80300000878
:101A9000070020A1070000100E0040420F0060E385
:101AA00016000000000002000009000D1C1F1C268B
:101AB0001C2D1C341C4F6E004F6666005965730068
:101AC0004E6F00030004004E2F4100003A002064D6
:101AD000617973200041382D420042616E67426196
:101AE0006E6700536C6F7742616E67004465616496
:101AF0002054696D6500504944005072696E7469E4
:101B00006E672E2E2E002064656620000000003FC8
:101B1000CDCC4C3D0AD7A33B6F12033A4F4D4E49F3
:101B2000203344205052494E544552200057454CD2
:101B3000434F4D4520544F204F4D4E490041382DC5
:101B400042005072696E7465722072656164792E0C
:101B50000000401454040E15041C000000040A0484
:101B60000000000000001F1F1F1F1F0000001F11AA
:101B700011111F0000040A0A0A0E1F1F0E001C1F6D
:101B800011111F0000001F1511151F1F003B1C42E3
:101B90001C491C501C571C571C5E1C651C6C1C737C
:101BA0001C7A1C811C881C8F1C961C9D1CA41CABC1
:101BB0001CB21CB91CC01CC71CCE1CD51CDC1CE3F1
:101BC0001CEA1CF11CF81CFF1C061D0D1D141D1B1E
:101BD0001D221D291D301D571C371D3E1D451D4C46
:101BE0001D531D5A1D611D681D571C6F1D761D7DDF
:101BF0001D841D8B1D571C371D921D991DA01DA7EF
:101C00001DAE1DB51DBC1DC31DCA1D841D571CD195
:101C10001D5E1CD81DDF1DE61DED1DF41DFB1D0006
:101C200000000400021E00000004000A1E00000064
:101C30000400121E00000004001A1E221E000000F4
:101C40000000301E0000000000411E0000000000E7
:101C50004F1E0000000000601E03E8030000671E26
:101C600003F5030102721E03F60302047E1E0354F1
:101C7000040200891E03F7030400981E03F8030101
:101C800000A51E03F9030001B01E03F4030102BC0A
:101C90001E0000000000C51E0000000000D51E0050
:101CA00000000000E51E0000000000E61E0000002D
:101CB0000000EF1E0000000000FF1E0000000000FA
:101CC0000F1F0000000000101F0000000000191F7F
:101CD0000000000000291F0000000000391F000064
:101CE0000000003A1F0000000000431F0000000039
:101CF00000531F0000000000631F0000000000648C
:101D00001F00000000006D1F00000000007D1F008C
:101D1000000000008D1F00000000008E1F0000006A
:101D20000000971F0000000000A71F000000000037
:101D3000B71F0000000000B81F03FD030010C11F03
:101D4000041F040000D31F0448040000E51F0337EC
:101D5000040000F11F0347040000FD1F03380400C6
:101D60000006200331040010142003420400102454
:101D700020043C0400003420043D040000442003FF
:101D80003A0400005320026220000069200343044B
:101D90000000742003FE0300107B2003FF030010EB
:101DA00082200300040010892002F219000095200F
:101DB00002DD190000A02002F9190000AC2002E4A5
:101DC000190000B72002001A0000C32002EB19001E
:101DD00000CE2002071A0000DD2002151A0000E6DE
:101DE00020020E1A0000EF2002F92000000021025C
:101DF000D619000008210212210000192102272112
:101E000000002E2135213C2143214A215121582116
:101E10005F2166216D2174217B21822189219021FE
:101E20009721436F6E66696775726174696F6E00A2
:101E300073746F72656420696E20454550524F4D32
:101E400000436F6E66696775726174696F6E006CCE
:101E50006F6164656420662E20454550524F4D00E9
:101E60004261636B2001005072696E742066696C78
:101E700065005061757365205072696E740053740B
:101E80006F70205072696E7400436F6E74696E7566
:101E900065205072696E7400556E6D6F756E74209A
:101EA00043617264004D6F756E742043617264000B
:101EB00044656C6574652066696C6500583A2578E0
:101EC00030206D6D004D696E20656E6473746F70A7
:101ED0003A257378004D617820656E6473746F7075
:101EE0003A2573580000593A257831206D6D004D20
:101EF000696E20656E6473746F703A257379004D56
:101F0000617820656E6473746F703A2573590000B0
:101F10005A3A257832206D6D004D696E20656E64E9
:101F200073746F703A25737A004D617820656E6422
:101F300073746F703A25735A0000583A2578302030
:101F40006D6D004D696E20656E6473746F703A2517
:101F50007378004D617820656E6473746F703A25F4
:101F600073580000593A257831206D6D004D696E27
:101F700020656E6473746F703A257379004D6178D3
:101F800020656E6473746F703A25735900005A3A75
:101F9000257832206D6D004D696E20656E64737416
:101FA0006F703A25737A004D617820656E647374A2
:101FB0006F703A25735A0000486F6D6520416C6C54
:101FC000005370656564204D756C2E3A256F6D2544
:101FD000252500466C6F77204D756C2E203A256FB5
:101FE00066252525005072656865617420504C4156
:101FF00000507265686561742041425300436F6F01
:102000006C646F776E0053657420746F204F726933
:1020100067696E0044697361626C652073746570F2
:10202000706572004265642054656D702E3A2545D6
:102030006202430054656D702E203020203A254501
:102040003002430045787472756465722030204F09
:10205000666600457874722E20706F736974696FBC
:102060006E0003F00302009E21536574204F7269D5
:1020700067696E00486F6D65205800486F6D652078
:102080005900486F6D65205A005820506F732E20FC
:1020900046617374005820506F736974696F6E00E5
:1020A0005920506F732E2046617374005920506F71
:1020B000736974696F6E005A20506F732E204661E9
:1020C0007374005A20506F736974696F6E00517594
:1020D00069636B2053657474696E677300506F7326
:1020E0006974696F6E004578747275646572004634
:1020F000616E207370656564000200000700A22114
:102100005344204361726400446562756767696E79
:1021100067000200000500B021436F6E66696775B5
:10212000726174696F6E000200000700BA21C82155
:102130000000000000DB210000000000EB21000097
:10214000000000FF2100000000000322000000004A
:10215000000C220000000000152200000000001EFC
:1021600022000000000022220000000000332200B4
:1021700000000000342200000000004422000000A3
:10218000000048220000000000562200000000006D
:102190005A2200000000006B2200000000007122A3
:1021A0007822571C7F2286228D2294229B22A222F3
:1021B000571CA922B022B722BE22571CC522CC220E
:1021C000D322DA22E122E822052565632F25456323
:1021D00002072565422F25456202005A3A257832CA
:1021E0002020427566203A256F42004D756C3A25D5
:1021F0006F6D20202020466C6F773A256F66002592
:102200006F7300583A257830206D6D00593A257863
:1022100031206D6D005A3A257832206D6D00256FA2
:10222000730045313A2565302F25453002437E2520
:102230006F300000423A2565622F25456202437ED9
:10224000256F6200256F73005072696E74696E6746
:102250002074696D65002555740046696C616D6573
:102260006E74207072696E74656400255566206D09
:1022700000EF220000000000F8220000000000072C
:102280002304520400001823031A04080025230322
:102290001B0400003323031C0400004123031D041E
:1022A00000004F23031E0400005C230332040000DF
:1022B00068230333040000742303340400008023E4
:1022C00003350400008C2302942300009B2302A802
:1022D000230000AF2302B8230000BF2302C823005D
:1022E00000CF230306040000DF230307040000459A
:1022F0003A257833206D6D003120636C69636B2063
:102300003D2031206D6D0046616E207370656564FF
:102310003A254673252525005475726E2046616E58
:10232000204F6666005365742046616E2032352565
:102330002525005365742046616E203530252525FE
:10234000005365742046616E2037352525250053DE
:1023500065742046616E2046756C6C004563686F3D
:102360002020203A25646F00496E666F2020203AB5
:10237000256469004572726F7273203A25646500A6
:102380004472792072756E3A2564640047656E6503
:1023900072616C000200000400EE23416363656C0F
:1023A00065726174696F6E000200000900F62346D1
:1023B00065656472617465000200000700082445C9
:1023C00078747275646572000200000F0016245361
:1023D000746F726520746F20454550524F4D004C0C
:1023E0006F616420662E20454550524F4D00571CAA
:1023F00034243B244224571C4924502457245E246F
:1024000065246C2473247A24571C812488248F2407
:1024100096249D24A424571CAB24B224B924C024A0
:10242000C724CE24D524DC24E324EA24F124F82490
:10243000FF2406250D2504100400001A25022B2573
:102440000000322502402500004725040804000052
:10245000532504090400005F25040A0400006B25CD
:10246000040B0400007725040C0400008325040DF0
:102470000400008F25040E0400009B25040F0400B7
:1024800000A7250414040000B1250415040000BBB6
:10249000250416040000C5250411040000D02504FD
:1024A00012040000DB250413040000E625042904BF
:1024B0000000F325042C0400000026042B04000077
:1024C0000B26042A0400001526042E0400002326EF
:1024D000044D0400003626044C0400004726042D59
:1024E0000400005326042204000060260423040094
:1024F000006A2604240400007426042504000082D7
:102500002604260400009026042F04000042617572
:1025100064726174653A256F630053746570706509
:102520007220496E616374697665000320040200BD
:102530009C264D61782E20496E6163746976650032
:102540000358040200A0265072696E7420583A2580
:102550006178005072696E7420593A256179005093
:1025600072696E74205A3A25617A004D6F76652043
:1025700058203A256158004D6F76652059203A253C
:102580006159004D6F7665205A203A25615A004AFC
:1025900065726B2020203A25616A005A2D4A6572C7
:1025A0006B203A25614A004D617820583A256678BB
:1025B000004D617820593A256679004D6178205A9E
:1025C0003A25667A00486F6D6520583A25665800AE
:1025D000486F6D6520593A25665900486F6D652032
:1025E0005A3A25665A0053746570732F4D4D3A253B
:1025F00053650053746172742046523A2558660040
:102600004D61782046523A25584600416363656C17
:102610003A25584100537461622E54696D653A251C
:102620005877005761697420556E6974733A202594
:102630005855206D6D00576169742054656D702E7A
:1026400020255854024300436F6E74726F6C3A2514
:1026500058680044542F50494420503A255870007F
:1026600050494420493A2558690050494420443A89
:10267000255864004472697665204D696E3A255884
:102680006D004472697665204D61783A25584D0099
:10269000504944204D61783A25584400A426AB2681
:1026A000B226B926C0260000000000CF2600000098
:1026B0000000D9260000000000E82600000000000D
:1026C0004469732E2041667465723A256973005B14
:1026D000735D20303D4F6666004469732E2041666D
:1026E0007465723A256970005B735D20303D4F66FA
:1026F000660000002100240027002A0000002200BC
:10270000250028002B0000002000230026002900BF
:102710000202020202020202040404040404040489
:102720000303030303030303010101010101010189
:10273000010204081020408001020408102040809B
:10274000010204081020408080402010080402018B
:102750000000000102000000000000000403070662
:102760000000000000000000000000000000000069
:10277000494E46494E4954594E414ECDCCCC3D0A66
:10278000D7233C17B7D13877CC2B329595E6241F49
:10279000B14F0A000020410000C84200401C462002
:1027A000BCBE4CCA1B0E5AAEC59D7400984E3F79F4
:1027B000BB9911241FBECFEFD0E4DEBFCDBF12E026
:1027C000A0E0B1E0EEE6F4E901E00BBF02C0079043
:1027D0000D92A236B107D9F71BBE10E1A2E6B2E016
:1027E00001C01D92AD3BB107E1F717E2C2EBD7E2A2
:1027F00004C02297FE010E94E7C9CC3AD107C9F76D
:102800000E94C3C40C9435CA0C940000CF93DF938C
:10281000BC018230910510F462E070E0A091B91023
:10282000B091BA10ED01E0E0F0E040E050E021C0EE
:10283000888199818617970769F48A819B813097EF
:1028400019F09383828304C09093BA108093B910D7
:10285000FE0134C06817790738F44115510519F0A5
:102860008417950708F4AC01FE018A819B819C01C5
:10287000E9012097E9F641155105A9F1CA01861B26
:10288000970B049708F4BA01E0E0F0E02AC08D91BC
:102890009C91119784179507F9F46417750781F4D3
:1028A00012968D919C911397309719F093838283A0
:1028B00004C09093BA108093B910FD0132964CC0B9
:1028C000CA01861B970BFD01E80FF91F61937193F5
:1028D00002978D939C9340C0FD01828193819C015E
:1028E000D9011097A1F68091B7109091B810892B5B
:1028F00041F480911401909115019093B810809348
:10290000B71040911601509117014115510541F43E
:102910004DB75EB78091120190911301481B590B7E
:102920002091B7103091B810CA01821B930B861703
:10293000970780F0AB014E5F5F4F8417950750F00B
:10294000420F531F5093B8104093B710F901619391
:10295000719302C0E0E0F0E0CF01DF91CF910895E4
:10296000CF93DF93009709F450C0EC0122971B82AC
:102970001A82A091B910B091BA10109709F140E0F5
:1029800050E0AC17BD0708F1BB83AA83FE0121917B
:102990003191E20FF31FAE17BF0779F48D919C912F
:1029A0001197280F391F2E5F3F4F398328831296C6
:1029B0008D919C9113979B838A834115510571F4E6
:1029C000D093BA10C093B91020C012968D919C91EB
:1029D0001397AD01009711F0DC01D3CFFA01D38337
:1029E000C28321913191E20FF31FCE17DF0769F403
:1029F00088819981280F391F2E5F3F4FFA0131835B
:102A000020838A819B8193838283DF91CF91089574
:102A1000A0E0B0E0EEE0F5E10C9404CAEC015B014B
:102A20006115710519F0FB0191838083F9908F2D59
:102A300090E00E94EBC9892BC9F7FDE2FF1621F453
:102A4000F990EE24E39405C02BE2F21609F4F99014
:102A5000EE248E0101501040C80160E777E243E0A8
:102A600050E00E949717892B01F58E010E5F1F4FD2
:102A7000C80163E777E245E050E00E949717892B91
:102A800019F48E01095F1F4FA114B10419F0F5016B
:102A900011830083E0FC04C070E090E080E814C083
:102AA00070E090E080E86FEF08C1C80168E777E266
:102AB00043E050E00E949717892B69F4A114B104F8
:102AC00029F470E090E080EC6FE7F7C02296F50102
:102AD000D183C083F6CF8824992440E050E060E0A1
:102AE00070E0EF2DE053EA30A0F5F2E0EF2A8E2DF2
:102AF00090E09C0128703070E2FE06C0232B79F52F
:102B00000894811C911C2BC0232B19F00894810878
:102B10009108DB01CA0112E0880F991FAA1FBB1F91
:102B20001A95D1F7480F591F6A1F7B1F440F551F75
:102B3000661F771F4E0F511D611D711D483929E910
:102B4000520729E9620729E1720748F084E0E82A80
:102B500006C0EE3F31F4E3FC39C098E0E92AF99071
:102B6000C0CFE53311F0E53189F529912D3219F403
:102B7000E0E1EE2A05C02B3219F081E090E003C0BD
:102B8000299182E090E0E22FE053EA3018F0C81B70
:102B9000D90B1CC020E030E0FCE020383F075CF49B
:102BA000C901880F991F880F991F280F391F220FFD
:102BB000331F2E0F311DE991E053EA3068F3E4FE34
:102BC00003C0309521953F4F820E931ECE2CDD24FD
:102BD000E1FE07C0A114B10421F02197F501D183D2
:102BE000C083CB01BA010E9463C67B018C01F3E074
:102BF000CF22DD2423E0C216D10421F417FB109567
:102C000017F9109557016801C801B70120E030E0BD
:102C100040E050E00E94C3C5882309F44AC097FEF3
:102C20000DC02FE8E22E27E2F22E909481949108B5
:102C30009394C0E2D0E000E010E012C097EAE92EE1
:102C400097E2F92EF6CFF7012591359145915491F0
:102C5000C601B5010E9473C85B016C018C1A9D0A04
:102C60008C169D0684F7D595C7950F5F1F4F0630CC
:102C7000110529F08CEF9FEFE80EF91EF1CFC50189
:102C8000D6017C018D018C2D880F8D2D881F8F3FE3
:102C900051F0C601B50120E030E040E050E00E9474
:102CA000C3C5882331F482E290E09093BC108093F6
:102CB000BB107E2D9F2D802F612F272F392F482F5E
:102CC000562FB901CA01CDB7DEB7ECE00C9420CA8B
:102CD0002F923F925F926F927F928F929F92AF92CC
:102CE000BF92CF92DF92EF92FF920F931F93CF93F9
:102CF000DF938C011B01EA016115710519F0FB01DD
:102D000091838083209749F0CE010297839728F022
:102D100020E030E040E050E0F6C0F801A1908F01E3
:102D20008A2D90E00E94EBC9892BB9F7FDE2AF161E
:102D300031F4F801A1908F015524539407C0FBE2B0
:102D4000AF1619F4F801A1908F015524209719F0BE
:102D5000C031D105C1F4F0E3AF1679F4F8018081F8
:102D6000883711F0883549F4F801A1800E5F1F4FB4
:102D7000F2E05F2AC0E1D0E006C0209721F480E3B2
:102D8000A816E9F427C0C830D10531F1C930D10502
:102D900024F4C230D10531F50CC0CA30D10589F018
:102DA000C031D105F9F4C12CD12CE12CB8E0FB2EB7
:102DB00028C0C12CD12CE12CA0E4FA2E22C0CAE0FC
:102DC000D0E0FCECCF2EFCECDF2EFCECEF2EFCE098
:102DD000FF2E17C0C8E0D0E0C12CD12CE12CE0E1DF
:102DE000FE2E0FC09E01442737FD4095542F60E012
:102DF00070E080E090E80E949CC9C901DA016C0192
:102E00007D0120E030E040E050E060E03E018824B9
:102E100077FC8094982C70EDB72EBA0CE9E0EB1596
:102E200070F48A2D81548A3118F499ECB92E06C0B9
:102E30008A2D81568A3150F589EAB82EBA0C8B2D2D
:102E400090E08C179D0714F56F3FE1F0C216D30692
:102E5000E406F506B0F0CA01B901A40193010E948D
:102E600049C99B01AC012B0D311D411D511D213064
:102E7000F0E03F07F0E04F07F0E85F0710F461E093
:102E800001C06FEFF801A1908F01C5CF211431046B
:102E900081F0662331F001501040F101118300836D
:102EA00008C051FE1AC002501040F1011183008386
:102EB00014C067FF12C050FC05C02FEF3FEF4FEF6B
:102EC0005FE704C020E030E040E050E882E290E0BC
:102ED0009093BC108093BB1016C050FE08C0509554
:102EE0004095309521953F4F4F4F5F4F0CC057FF96
:102EF0000AC082E290E09093BC108093BB102FEF49
:102F00003FEF4FEF5FE7B901CA01DF91CF911F910A
:102F10000F91FF90EF90DF90CF90BF90AF909F9078
:102F20008F907F906F905F903F902F900895FB015E
:102F3000DC014150504088F08D9181341CF08B357C
:102F40000CF4805E659161341CF06B350CF4605EAE
:102F5000861B611171F3990B0895881BFCCFFB014F
:102F6000DC0102C001900D9241505040D8F7089505
:102F7000FB01DC010D900020E9F7119701900D9203
:102F80000020E1F70895FC018191861721F0882344
:102F9000D9F7992708953197CF010895FB01DC01F6
:102FA0008D91019080190110D9F3990B0895FB01BF
:102FB000DC0101900D920020E1F70895FB01DC0196
:102FC0004150504048F001900D920020C9F701C0D7
:102FD0001D9241505040E0F70895FC0181E090E0DF
:102FE0000190061609F4CF010020D1F7019708954A
:102FF000A0E0B0E0EEEFF7E10C9408CA7C01EB0131
:103000008A01690109C0CE012196F6010995F701EF
:1030100081937F010150104001151105A1F7CDB733
:10302000DEB7E8E00C9424CABF92CF92DF92EF9211
:10303000FF920F931F937B018C01FB010995B82E22
:10304000C8010196F7010995C82EC8010296F7013B
:103050000995D82EC8010396F7010995982F6B2D75
:103060007C2D8D2D1F910F91FF90EF90DF90CF90D1
:10307000BF900895DF92EF92FF920F931F937B0111
:103080008C01FB010995D82EC8010196F70109951D
:10309000982F8D2D1F910F91FF90EF90DF90089545
:1030A000A0E0B0E0E6E5F8E10C9408CAEC017B0191
:1030B0008A01690109C0CE012196F70161917F0162
:1030C000F60109950150104001151105A1F7CDB782
:1030D000DEB7E8E00C9424CABF92CF92DF92EF9261
:1030E000FF920F931F93D52EC62EB72E79018C0118
:1030F000642FF9010995C80101966D2DF701099515
:10310000C80102966C2DF7010995C80103966B2D35
:10311000F70109951F910F91FF90EF90DF90CF90ED
:10312000BF900895DF92EF92FF920F931F93D72ED7
:103130007A018C01FA010995C80101966D2DF701FC
:1031400009951F910F91FF90EF90DF9008959C01DA
:10315000F999FECF32BD21BDF89A80B50895089542
:10316000609118017091190180911A0190911B01D1
:103170006817790744F470931B0160931A0180EC7F
:1031800093E00E94C9290895BC01893191051CF47E
:1031900069E170E005C0893C910514F068EC70E0CD
:1031A0007093710C6093700C8EE094E00E94C929BA
:1031B0000895EF92FF920F931F93CF93DF93EC014B
:1031C000893191051CF4C9E1D0E006C081E0C53F1A
:1031D000D80714F0C4EFD1E0BE01882777FD8095B1
:1031E000982F0E9465C67B018C0160916E0C7091D6
:1031F0006F0C882777FD8095982F0E9465C69B01EC
:10320000AC01C801B7010E94CAC59B01AC01609125
:103210006A0C70916B0C80916C0C90916D0C0E94FB
:1032200073C860936A0C70936B0C80936C0C9093D2
:103230006D0CD0936F0CC0936E0C8FEF93E0BE01BA
:103240000E94C929DF91CF911F910F91FF90EF90BC
:1032500008950E944C509C01809118019091190191
:103260002817390724F43093190120931801089581
:103270000E94E84C08952F923F924F925F926F9276
:103280007F928F929F92AF92BF92CF92DF92EF92F6
:10329000FF920F931F93DF93CF93CDB7DEB728979D
:1032A0000FB6F894DEBF0FBECDBFA090CB0BB09091
:1032B000CC0BC090CD0BD090CE0B2090CF0B30908C
:1032C000D00B4090D10B5090D20B8091D30B9091AA
:1032D000D40BA091D50BB091D60B89839A83AB8385
:1032E000BC832091F30B3091F40B4091F50B50917E
:1032F000F60B6090F70B7090F80B8090F90B9090A4
:10330000FA0B8091FB0B9091FC0BA091FD0BB091FF
:10331000FE0B8D839E83AF83B8878091870B8823B4
:1033200059F40F2EF0E0EF2EF0E0FF2EF0E80F2F13
:10333000FFE31F2FF02D0AC00F2EF0E7EF2EF2E46F
:10334000FF2EF1E20F2FFDE31F2FF02DC601B50177
:103350000E94FDC4A80197010E9473C8AB01BC0183
:103360008AEC93E022E00E94042B8091870B882353
:1033700059F40F2EF0E0EF2EF0E0FF2EF0E80F2FC3
:10338000FFE31F2FF02D0AC00F2EF0E7EF2EF2E41F
:10339000FF2EF1E20F2FFDE31F2FF02DC201B1012F
:1033A000A40193010E94FDC4A80197010E9473C863
:1033B000AB01BC0181ED93E022E00E94042B8091DF
:1033C000870B882359F40F2EF0E0EF2EF0E0FF2E4C
:1033D000F0E80F2FFFE31F2FF02D0AC00F2EF0E7AC
:1033E000EF2EF2E4FF2EF1E20F2FFDE31F2FF02D61
:1033F00069817A818B819C812D813E814F815885A5
:103400000E94FDC4A80197010E9473C8AB01BC01D2
:1034100085ED93E022E00E94042B2091C70B3091B0
:10342000C80B4091C90B5091CA0BA090940BB0905F
:10343000950BC090960BD090970B8091870B8823AB
:1034400059F40F2EF0E0EF2EF0E0FF2EF0E80F2FF2
:10345000FFE31F2FF02D0AC00F2EF0E7EF2EF2E44E
:10346000FF2EF1E20F2FFDE31F2FF02DCA01B9014E
:103470000E9465C6A60195010E9473C8A801970124
:103480000E9473C8AB01BC0189ED93E022E00E9469
:10349000402B28960FB6F894DEBF0FBECDBFCF915C
:1034A000DF911F910F91FF90EF90DF90CF90BF9031
:1034B000AF909F908F907F906F905F904F903F90D4
:1034C0002F9008950F931F9303E214E0C8016DE05D
:1034D0000E94674EC8016AE00E94674E1F910F91DB
:1034E00008956F927F928F929F92AF92BF92CF92E8
:1034F000DF92EF92FF920F931F93DF93CF9300D051
:1035000000D0CDB7DEB76091880C7091890C8091A6
:103510008A0C90918B0C2FE632E143E85AE30E942B
:1035200073C87B018C01CE01019661E870E044E034
:1035300050E027EA38E10E94F817C801B701298155
:103540003A814B815C810E94FDC4AB01BC0186E2E3
:1035500094E022E00E94042B87E494E00E94A629D4
:10356000E091CC01F091CD016385748585859685C8
:1035700020E030E040E751E40E94D1C718160CF477
:103580007AC06624772443018DE790E067EA78E10A
:103590000E9414187B018C01E60CF71C081D191DF4
:1035A000C801B70120E831E541E050E00E94BEC902
:1035B000922E832E742E652E622F732F842F952FBB
:1035C00020E83EEA4EEF5FEF0E9449C95B016C01C3
:1035D000AE0CBF1CC01ED11E88E394E0492D582DAF
:1035E000672D762D0E94F029C601B50120E13EE04D
:1035F00040E050E00E94BEC9122F032FF42EE52EAA
:103600008AE494E0422F502F6F2D7E2D0E94F029E6
:10361000612F702F8F2D9E2D20EF31EF4FEF5FEF39
:103620000E9449C9A60EB71EC81ED91EC601B50103
:103630002CE330E040E050E00E94BEC981E594E018
:10364000BA01A9010E94F02989E594E00E942D2A7F
:103650000F900F900F900F90CF91DF911F910F91CE
:10366000FF90EF90DF90CF90BF90AF909F908F90A2
:103670007F906F9008950E94DCC22091840C30915D
:10368000850C4091860C5091870C621B730B840B48
:10369000950B28EE33E040E050E00E949CC9C90140
:1036A000DA013C014D0170CF1F93182FE091750294
:1036B000F091760244A555A566A577A58DED93E01A
:1036C00022E00E94042BE0917502F091760240A95D
:1036D00051A962A973A98CEF93E020E00E94042B0A
:1036E0000E942838AB01BC0180EE93E022E00E94EA
:1036F000042B40919601509197016091980170912F
:1037000099018CEF93E020E00E94042B112391F0AB
:1037100083EF93E061E070E00E94012A6CEF7FE0AC
:1037200080918E0190918F01681B790B88EF93E057
:103730000E94012AE0918B01F0E0E85BFB4F608181
:103740008EEE93E070E00E94012AE0911E01EF3FAF
:1037500029F4E0917502F0917602E081F0E0E85BF7
:10376000FB4F608184EE93E070E00E94012A0E948A
:10377000621A1F910895809164028823C1F010920B
:1037800064020E943B4180911D01815080931D0184
:10379000882349F480911C01833010F40E94FA3A86
:1037A00085E080931D018EE89FE00E94FCBF089594
:1037B00008C00E94CD490E94BB1B8EE89FE00E947A
:1037C000BA998091810B8823A1F70895CF93DF9355
:1037D00097FD10C0EC018F3F910521F01CF0CFEF59
:1037E000D0E002C0009731F08091010C8860809396
:1037F000010C07C08091010C877F8093010CC0E011
:10380000D0E0662311F00E94D81B80914B0490E019
:10381000C817D90729F08CE194E0BE010E94C9299C
:10382000C0934B04DF91CF9108952F923F924F9216
:103830005F926F927F928F929F92AF92BF92CF9240
:10384000DF92EF92FF920F931F93DF93CF93CDB749
:10385000DEB7E0970FB6F894DEBF0FBECDBF6C01A8
:1038600080912702282F84FF19C0D6018C9182FDF8
:1038700009C081FF13C016968D919C9117978F36C2
:10388000910561F00E94DCC2609340047093410492
:1038900080934204909343040C94A428F601008181
:1038A000118102FF75C3808591858431910509F4EA
:1038B0002DC28531910558F48430910520F402978A
:1038C00008F040C020C0049709F056C3E1C18A3512
:1038D000910509F465C28B35910540F48531910558
:1038E00009F418C24C9709F047C317C28C359105EB
:1038F00009F45DC28C35910508F455C28C399105E7
:1039000009F03AC30EC312FF12C0F601878D90A1D1
:10391000A1A1B2A12091000C0097A105B10519F059
:10392000822F806202C0822F8F7D8093000CC6019F
:103930000E94526F882309F41FC381E061E00E9456
:103940009E651AC38091CB0B9091CC0BA091CD0BAF
:10395000B091CE0B89879A87AB87BC878091CF0BBC
:103960009091D00BA091D10BB091D20B8D879E87F7
:10397000AF87B88B8091D30B9091D40BA091D50BCE
:10398000B091D60B898B9A8BAB8BBC8BC6010E94F6
:10399000526F882309F4F0C2FE01319688E0DF01FE
:1039A0001D928A95E9F7F601828180FD05C020E02D
:1039B00030E040E050E007C0D60197962D913D9150
:1039C0004D915C919A978091870B882351F0CA01A1
:1039D000B90123E333E34BEC51E40E9473C89B012C
:1039E000AC0129833A834B835C83F601828181FD9C
:1039F00005C020E030E040E050E007C0D6019B96D3
:103A00002D913D914D915C919E978091870B8823DC
:103A100051F0CA01B90123E333E34BEC51E40E94B6
:103A200073C89B01AC012D833E834F835887FE01F1
:103A3000759680E1DF011D928A95E9F78091CB0BA5
:103A40009091CC0BA091CD0BB091CE0B8D8B9E8B1A
:103A5000AF8BB88F8091CF0B9091D00BA091D10BF1
:103A6000B091D20B898F9A8FAB8FBC8F8091D30B83
:103A70009091D40BA091D50BB091D60B8D8F9E8FCA
:103A8000AF8FB8A36091EF0B7091F00B8091F10BA9
:103A90009091F20B0E9465C62091940B3091950B8A
:103AA0004091960B5091970B0E9473C869A37AA31B
:103AB0008BA39CA3F601828182FFC7C087A490A834
:103AC000A1A8B2A88091870B882351F0C501B40149
:103AD00023E333E34BEC51E40E9473C84B015C01D8
:103AE0006D897E898F89988D29853A854B855C857E
:103AF0000E94FCC46DA77EA78FA798AB698D7A8DB5
:103B00008B8D9C8D2D853E854F8558890E94FCC4E8
:103B10002B013C01C501B40120E030E040E850E455
:103B20000E9473C8A50194010E9473C87B018C0197
:103B30006DA57EA58FA598A99B01AC010E9473C8B5
:103B40009B01AC01C801B7010E94FCC47B018C0140
:103B5000C301B201A30192010E9473C89B01AC0191
:103B6000C801B7010E94FCC40E94E0C87B018C011F
:103B70006DA57EA58FA598A9A30192010E94DEC71D
:103B80009B01AC0117FB109517F91095C801B701FF
:103B90000E94CAC57B018C01A80197010E942DC912
:103BA000882329F08EE594E00E94322AE5C1D601EF
:103BB00018968D919C911997039721F417FB1095F6
:103BC00017F91095C501B40120E030E040E050E065
:103BD0000E94C3C5882344F417FB109517F910956C
:103BE000B7FAB094B7F8B094C301B201A801970135
:103BF0000E9473C89B01AC016DA57EA58FA598A9F5
:103C00000E94FCC420E030E040E05FE30E9473C803
:103C100069837A838B839C836DA57EA58FA598A9E4
:103C2000A80197010E9473C89B01AC01C301B201B6
:103C30000E94FDC420E030E040E05FE30E9473C8D2
:103C40006D837E838F8398870CC069817A818B8195
:103C50009C812D813E814F8158850E94DEC74B019A
:103C60005C01E0E0D60118968D919C91199702971E
:103C700009F4E1E0CE010996BE016B5E7F4FAE0113
:103C80004F5F5F4F95018401EE2E0E94495674C12B
:103C90000E94D81BF6018081918193FD04C0EE241F
:103CA000FF24870107C0D6019396ED90FD900D91FA
:103CB0001C91969792FF0DC0F601678D70A181A1AE
:103CC00092A128EE33E040E050E00E9449C97B0118
:103CD0008C010E94DCC25B016C01AE0CBF1CC01EDB
:103CE000D11E04C00E94CD490E94BB1B0E94DCC2B1
:103CF000A6019501261B370B480B590BDA01C901A8
:103D000080509449A543B74768F336C181E080935A
:103D1000870B32C11092870B2FC1C8018873907036
:103D2000892B11F080E008C0C80156E09695879570
:103D30005A95E1F78095817006FF08C01092C70B75
:103D40001092C80B1092C90B1092CA0B882321F055
:103D500041E051E061E01DC0D6012D913C91C901C7
:103D600088739070892BC1F0C90143E096958795BF
:103D70004A95E1F7582F5170C90134E0969587951F
:103D80003A95E1F7682F617025FD02C040E001C05F
:103D900041E0852F0E94067480E00E949D6AECC07D
:103DA0001092B90BE9C081E08093B90BE5C0A090F7
:103DB000F30BB090F40BE090F50BF090F60B6090E5
:103DC000F70B7090F80B8090F90B9090FA0B209005
:103DD000FB0B3090FC0B4090FD0B5090FE0B03FF53
:103DE00021C0F60122853385448555858091870B56
:103DF000882351F0CA01B90123E333E34BEC51E4CA
:103E00000E9473C89B01AC01CA01B9012091CB0B80
:103E10003091CC0B4091CD0B5091CE0B0E94FCC445
:103E20005B017C0104FF23C0D6011E962D913D91BC
:103E30004D915C9151978091870B882351F0CA0175
:103E4000B90123E333E34BEC51E40E9473C89B01B7
:103E5000AC01CA01B9012091CF0B3091D00B409138
:103E6000D10B5091D20B0E94FCC43B014C0105FFC9
:103E700021C0F60122893389448955898091870BB5
:103E8000882351F0CA01B90123E333E34BEC51E439
:103E90000E9473C89B01AC01CA01B9012091D30BE8
:103EA0003091D40B4091D50B5091D60B0E94FCC49D
:103EB0001B012C01B501C7019301A401710182010D
:103EC0000E947C6AD6018C9186FF56C056962D9131
:103ED0003D914D915C9159978091870B882351F0CA
:103EE000CA01B90123E333E34BEC51E40E9473C8E8
:103EF0009B01AC01CA01B9012091E7013091E801B1
:103F00004091E9015091EA010E9473C80E9432C6B3
:103F10006093C70B7093C80B8093C90B9093CA0B27
:103F20002BC080E061E040E00E94067400D000D029
:103F300020915A0C30915B0C40915C0C50915D0CBF
:103F40008091FF0190910002A0910102B0910202C4
:103F5000EDB7FEB781839283A383B48360E87FE4E7
:103F600083EC97E47B018C015B016C010E94BF72C2
:103F70000F900F900F900F900E94DCC2609340044E
:103F80007093410480934204909343040C94A428BA
:103F900001FD02C00C949228D60116968D919C9139
:103FA00017978237910509F4C9C68337910508F040
:103FB00081C08A32910509F47EC18B329105C8F522
:103FC0008931910509F427C18A319105C8F48631F8
:103FD000910509F404C18731910548F484319105B4
:103FE00009F4F3C0459711F00C94A428F3C087316D
:103FF000910509F4F9C0489711F00C94A42806C162
:104000008C31910509F42BC18D31910548F48A3129
:10401000910509F406C14B9711F00C94A4281AC11C
:104020008E31910509F427C1809711F00C94A428D2
:1040300031C18336910509F427C684369105D8F439
:104040008435910509F49AC58535910550F482357A
:10405000910509F48CC58335910511F00C94A428C1
:1040600089C58535910509F4A5C58C35910511F0F3
:104070000C94A428C0C58A36910509F45CC58B361A
:10408000910550F48836910509F45DC18936910592
:1040900011F00C94A42807C28D36910509F40DC2C5
:1040A0008F36910509F430C68B36910511F00C94CA
:1040B000A42853C58E3C910509F468C78F3C91052F
:1040C000E8F58E3B910509F4E9C38F3B9105D8F4DF
:1040D0008537910509F435C68637910550F4833745
:1040E000910509F424C68437910511F00C94A42895
:1040F0007DC48737910509F435C68C38910511F0D8
:104100000C94A42896C18B3C910509F4E3C68C3C21
:10411000910550F4893C910509F450C68A3C9105FB
:1041200011F00C94A42890C68C3C910509F4E5C6C6
:104130008D3C910511F00C94A42825C7B1E080397D
:104140009B0709F498C7E1E081399E07E0F48D3DB3
:10415000910509F480C78E3D910550F48F3C91057F
:1041600009F418C78C3D910511F00C94A42861C77F
:10417000F1E08F329F0709F4AAC48E55914011F0E7
:104180000C94A428CAC731E0843F930709F4ACC754
:1041900041E0853F940750F451E08139950709F4D7
:1041A0006DC78259914009F0CFC76BC7B1E0863F18
:1041B0009B0709F4AFC7E1E0863F9E0708F49CC760
:1041C000875F914009F0C0C7DEC682EF9CE00E9485
:1041D000B87ABAC782EF9CE00E945A7EB5C782EFD8
:1041E0009CE00E940079B0C717FFAEC782EF9CE049
:1041F00060E00E947689D601D3966D917C91D49728
:1042000082EF9CE040E00E94217A9EC782EF9CE012
:104210000E94187999C782EF9CE060E00E948C7D33
:1042200093C712FF91C7F601478D50A161A172A1FA
:1042300080915C0D882309F487C74093530D5093F8
:10424000540D6093550D7093560D82E39DE00E94CE
:1042500007877AC782EF9CE00E94FC7975C717FF39
:1042600073C7D601D3966D917C91D49782EF9CE071
:104270000E94BD7969C717FF67C782EF9CE060E0C5
:104280000E947689F60163A974A982EF9CE00E94DE
:104290006E795AC717FF58C782EF9CE060E00E9412
:1042A0007689D601D3966D917C91D49782EF9CE06C
:1042B0000E94447949C712FF47C713FF45C7F6015B
:1042C000878D90A1A1A1B2A1B7FD3EC78F3F9105F7
:1042D000A105B10511F00CF037C703A114A120E02E
:1042E00030E0F901EE0FFF1FE155FE4FE4918E2FF4
:1042F00090E08017910709F427C72F5F3F4F2833BD
:10430000310579F717FD20C7802F61E00E9413C4A3
:10431000802FD6015F966C910E9490C4F601678D44
:1043200070A1802F0E9495C389E894E0B8010E9493
:10433000012AD6015F966D917C91909785E994E072
:104340000E94C92901C70E94AC3A882309F0FCC623
:104350000E94DCC260934004709341048093420445
:10436000909343048091270283FDEEC6F60180817D
:10437000918193FD0AC092FF0AC0878D90A1A1A1EF
:10438000B2A10097A105B10511F40E94D81BD60176
:104390008D919C91119792FFD7C65F968D909D90BD
:1043A000AD90BC9092979C012070317091FF1EC01F
:1043B0005E960C91232B11F410E00FC010E0F60173
:1043C000628D738D848D958D20E030E040E050E06B
:1043D0000E94D1C718160CF411E0C501B4010E9467
:1043E00065C6402F212F0E94FC3EAEC6E0917502AB
:1043F000F09176020081232B11F410E011C010E03F
:10440000D6015A966D917D918D919C915D9720E09A
:1044100030E040E050E00E94D1C718160CF411E0E3
:10442000C501B4010E9465C6402F212F0E94FC3EA9
:104430008BC60E94AC3A882309F086C60E94DCC273
:10444000609340047093410480934204909343042A
:104450008091270283FD78C6F6018081918192FFC9
:1044600073C6E78CF0A001A112A190FD02C0BB248D
:1044700012C0BB24D6015A966D917D918D919C916D
:104480005D9720E030E040E050E00E94D1C7181670
:1044900014F4BB24B394C801B7010E9465C64B2D28
:1044A0000E94353B51C683E0169507958A95E1F742
:1044B000802F81700E94541B47C60E94AC3A88230B
:1044C00009F042C60E94DCC260934004709341042C
:1044D00080934204909343048091270283FD34C665
:1044E0008EE89FE065E072E040E00E94C0988EE8B0
:1044F0009FE00E9465B60E94D81B80907502909044
:104500007602F6012081318131FF07C0868D882334
:1045100021F41FE1812E11E0912E32FF27C0D60138
:104520005F96ED90FD900D911C919297F401A08003
:1045300030FD02C0BB2412C0BB24D6015A966D9137
:104540007D918D919C915D9720E030E040E050E0BE
:104550000E94D1C7181614F4BB24B394C801B70144
:104560000E9465C64A2D2B2D0E94FC3EF40164A5D5
:1045700075A586A597A520A931A942A953A90E948E
:10458000FCC47B018C0120E030E040E050E00E9460
:10459000D1C718165CF4C801B70120E030E040E054
:1045A00050E40E94C3C5882364F4CEC5C801B70196
:1045B00020E030E040E050EC0E94D1C718160CF427
:1045C000C3C53324D4019A962D913C919B9798961C
:1045D0008D919C9199978217930714F43324339407
:1045E0000E94DCC269A77AA78BA79CA74424552404
:1045F000320110E00E94DCC26DA37EA38FA398A7B6
:10460000DC01CB0129A53AA54BA55CA5821B930B28
:10461000A40BB50B895E9340A040B04058F080E0F9
:104620000E94541B8DA19EA1AFA1B8A589A79AA7EE
:10463000ABA7BCA70E94BB1B80917502909176022C
:104640008816990609F067C0D4019396ED90FC9006
:1046500094971E141F040CF05EC0112309F05BC078
:10466000332009F458C091966D917C9192978827D8
:1046700077FD8095982F0E9465C69B01AC01F401DF
:1046800064A575A586A597A50E94D1C718160CF03C
:1046900042C000D000D000D00DB71EB70F5F1F4F33
:1046A000662777276E197F09882777FD8095982FD1
:1046B0000E9465C62091E7013091E8014091E9012F
:1046C0005091EA010E9473C80E9432C65B016C01DE
:1046D000F40187859089A189B289F801808391834B
:1046E000A283B3831482158260E070E080E090E0E2
:1046F00020E030E040E050E0EE24FF2487010E94FB
:10470000776911E02DB73EB72A5F3F4F0FB6F89497
:104710003EBF0FBE2DBF411451046104710409F066
:1047200053C03320C9F0D401D0966D917D918D9105
:104730009C91D39720E030E040E85FE30E94FCC406
:104740009B01AC01F40164A575A586A597A50E94FF
:10475000D1C787FF1AC04ECFD401D0966D917D91FD
:104760008D919C91D39720E030E040E85FE30E9478
:10477000FDC49B01AC01F40164A575A586A597A5B0
:104780000E94C3C518160CF435CFD4015F966D9105
:104790007C919097882777FD8095982F28EE33E0BD
:1047A00040E050E00E9449C92B013C012DA13EA1EF
:1047B0004FA158A5420E531E641E751E411451048C
:1047C0006104710409F416CFD301C2012DA13EA1E9
:1047D0004FA158A5821B930BA40BB50B8050944995
:1047E000A543B74708F406CF112309F44AC08091C6
:1047F0007502909176028816990609F042C000D0A1
:1048000000D000D00DB71EB70F5F1F4FD401939695
:104810006D917C919497882777FD8095982F0E94C1
:1048200065C62091E7013091E8014091E90150917E
:10483000EA010E9473C80E9432C65B016C01F40158
:1048400087859089A189B289F80180839183A283A9
:10485000B3831482158260E070E080E090E020E095
:1048600030E040E050E0EE24FF2487010E947769A9
:104870002DB73EB72A5F3F4F0FB6F8943EBF0FBE2D
:104880002DBF1092CE0F0E94DCC260934004709343
:104890004104809342049093430456C423FD54C4BE
:1048A0008EE89FE069EF71E040E00E94C0988EE8DA
:1048B0009FE00E9465B60E94D81BD6018D919C9105
:1048C000119792FF21C05F96ED90FD900D911C9184
:1048D000929790FD02C0BB2410C0BB24F601628DEC
:1048E000738D848D958D20E030E040E050E00E9493
:1048F000D1C7181614F4BB24B394C801B7010E94A1
:1049000065C64B2D0E94353B6091920170919301D9
:104910008091940190919501209196013091970199
:1049200040919801509199010E94FCC47B018C0137
:1049300020E030E040E050E00E94D1C718165CF45F
:10494000C801B70120E030E040E450E40E94C3C554
:10495000882364F4F9C3C801B70120E030E040E4E3
:1049600050EC0E94D1C718160CF4EEC30E94DCC2B2
:104970007B018C0114C00E94DCC26E197F09800B80
:10498000910B695E73408040904038F080E00E9457
:10499000541B0E94DCC27B018C010E94BB1B6091F6
:1049A000920170919301809194019091950120E082
:1049B00030E040E05FE30E94FDC420919601309119
:1049C000970140919801509199010E94C3C587FDBC
:1049D000D2CF1092CE0F0E94DCC26093400470933D
:1049E00041048093420490934304AEC323FDACC3BF
:1049F0000E94DCC24B015C010E94DCC2681979098B
:104A00008A099B09695E73408040904038F080E0DD
:104A10000E94541B0E94DCC24B015C010E94BB1B24
:104A2000C090CC01D090CD01D6011B96ED90FD90A9
:104A30000D911C911E97C801B70120E030E040EFB6
:104A400051E40E94D1C71816A4F4C801B701F601B9
:104A500027813085418552850E94FCC49F7720E0E4
:104A600030E040E85FE30E94D1C7181614F47724C1
:104A700002C077247394C090CE01D090CF01D601AC
:104A80001B96ED90FD900D911C911E97C801B701EA
:104A900020E030E040EF51E40E94D1C718169CF4AA
:104AA000C801B701F60127813085418552850E94F2
:104AB000FCC49F7720E030E040E85FE30E94D1C76C
:104AC00018160CF499CF772009F496CF3DC312FD48
:104AD00003C026E930E005C0D6015F962D913C91D8
:104AE000909713FD03C0CC24DD240AC0F601C3A0B7
:104AF000D4A0F2E0CF16D1041CF0B2E0CB2ED12C22
:104B0000F601EE0FFF1FE453FE4FE080F180B90184
:104B1000882777FD8095982F0E9465C6AB01BC0160
:104B2000E3E016950795EA95E1F70170C7012C2D92
:104B30000E949C3B09C312FD03C08FEF90E005C0AB
:104B4000D6015F968D919C919097612F66956695A1
:104B5000669561700E94E61BF7C2612F66956695A7
:104B60006695617080E090E00E94E61BEDC21092B5
:104B7000BA0BEAC281E08093BA0BE6C212FF14C0FE
:104B8000F601678D70A181A192A128EE33E040E08B
:104B900050E00E9449C96093D1017093D201809383
:104BA000D3019093D401D0C20E94D81B81E00E940F
:104BB0003475CAC212FF16C0D6015F966D917D9101
:104BC0008D919C91929728EE33E040E050E00E9456
:104BD00049C96093440470934504809346049093BC
:104BE0004704B2C210924404109245041092460445
:104BF00010924704A9C203FF0DC0F6018285938578
:104C0000A485B5858093DB019093DC01A093DD0141
:104C1000B093DE01D6018C9184FF0EC01E968D915B
:104C20009D910D90BC91A02D8093DF019093E001A8
:104C3000A093E101B093E201F601808185FF0CC0F1
:104C400082899389A489B5898093E3019093E401D3
:104C5000A093E501B093E6010E94DE75D6018C9128
:104C600086FF72C2E0917502F091760256962D9100
:104C70003D914D915C9159972187328743875487A5
:104C800080810E94C23F60C212FD07C040E1842EB5
:104C900047E2942EA12CB12C0DC0F601678D70A1B6
:104CA00081A192A128EE33E040E050E00E9449C982
:104CB0004B015C0103FD5E9A04FD5E9A05FD159AA9
:104CC0000E94DCC27B018C01E80CF91C0A1D1B1D33
:104CD00002C00E9482750E94DCC2A8019701261BB7
:104CE000370B480B590BDA01C901805A9648A1408D
:104CF000B04078F3D6013C9133FD5E9834FD5E9868
:104D000035FF22C2159820C212FF04C0F601878D1C
:104D1000809327028091270283FF16C260E070E033
:104D200080E090E040E020E00E94FC3E0DC286E181
:104D300092E00E942D2A0E94711A06C20E943B191D
:104D400003C217FF01C2D601D3966D917C91D4970F
:104D50008EE89FE040E00E94EC988EE89FE00E9481
:104D600065B6F2C10E94D81B80EA94E00E94A62991
:104D7000329B03C08DE994E002C08AE994E00E946E
:104D8000A6298EEA94E00E94A629339B03C08DE9F0
:104D900094E002C08AE994E00E94A6298CEB94E09A
:104DA0000E94A629349B03C08DE994E002C08AE9E1
:104DB00094E00E94A6290E94621AC6C103FF0DC09A
:104DC000F60182859385A485B5858093070290932B
:104DD0000802A0930902B0930A02D6018C9184FFC5
:104DE0000EC01E968D919D910D90BC91A02D80932B
:104DF0000B0290930C02A0930D02B0930E02F601E9
:104E0000808185FF0CC082899389A489B5898093AC
:104E10000F0290931002A0931102B0931202D601D8
:104E20008C9186FF0EC056968D919D910D90BC91F0
:104E3000A02D8093130290931402A0931502B093B7
:104E400016020E94DE7580C103FF0DC0F601828547
:104E50009385A485B5858093170290931802A0933B
:104E60001902B0931A02D6018C9184FF0EC01E96CF
:104E70008D919D910D90BC91A02D80931B029093DC
:104E80001C02A0931D02B0931E02F601808185FFD3
:104E90000CC082899389A489B58980931F0290935D
:104EA0002002A0932102B0932202D6018C9186FFAA
:104EB0000EC056968D919D910D90BC91A02D809322
:104EC000230290932402A0932502B09326020E940D
:104ED000DE753AC112FF38C1F601278D30A141A11C
:104EE00052A112161306140615061CF020931C017D
:104EF0002BC181E080931C0127C1809175029091A4
:104F0000760212FD03C0FC01B59610C0F601878D34
:104F100090A1A1A1B2A1B7FD17C10097A105B1054C
:104F200019F4E4E4F1E002C0EBE8F1E003FF0BC0A8
:104F3000D6011A962D913D914D915C911D97228F2E
:104F4000338F448F558FD6018C9184FF0AC01E96F3
:104F50002D913D914D915C915197268F378F40A3B4
:104F600051A3D6018C9185FF0AC052962D913D9197
:104F70004D915C91559722A333A344A355A3CF0130
:104F80000E94DC37E1C00E94712CDEC0C6010E9485
:104F90007C35DAC003FF0DC0F60182859385A485B8
:104FA000B5858093720C9093730CA093740CB0939E
:104FB000750CD6018C9186FF11C0E0917502F091BD
:104FC000760256962D913D914D915C915997278B84
:104FD000308F418F528F80810E94C23FF6018081C5
:104FE00085FF0CC082899389A489B5898093760C4A
:104FF0009093770CA093780CB093790C4091720C3D
:105000005091730C6091740C7091750C8AEC94E063
:1050100022E00E94042B4091760C5091770C609115
:10502000780C7091790C80ED94E022E00E94402B86
:105030008BC012FD05C024E630E040E050E007C020
:10504000D6015F962D913D914D915C919297C9014A
:105050000E94D91879C012FD05C024E630E040E076
:1050600050E005C0F601278D30A141A152A1C90130
:105070000E94C41869C00E94D81B66C00E946B6B56
:1050800063C010FF08C0D6015A96CD90DD90ED9018
:10509000FC905D9708C0C0906A0CD0906B0CE090BB
:1050A0006C0CF0906D0CB80134E0769567953A95EC
:1050B000E1F76170A80125E0569547952A95E1F73B
:1050C0004170980196E0369527959A95E1F7217001
:1050D00083E0169507958A95E1F7802F8170870107
:1050E00076010E949A7430C080E00E94F12E84E123
:1050F00097E00E944C2A28C00E940E32E09175026F
:10510000F091760280810E94C23F84E397E00E9482
:105110004C2A1AC00E94F73517C087EE91E00E9412
:105120002D2A12C011FF07C00E94D81BF601868DE0
:105130000E94C23F09C022FF07C08FEA93E00E948D
:10514000A629C6010E946A44E0960FB6F894DEBF15
:105150000FBECDBFCF91DF911F910F91FF90EF90C8
:10516000DF90CF90BF90AF909F908F907F906F9087
:105170005F904F903F902F900895CF93DF930E94C0
:10518000CD490E945944EC018EE89FE00E94BA99F3
:105190002097D1F080915D0D882381F0888181FF77
:1051A00004C08E819F814D9791F082EF9CE0BE01FB
:1051B0000E945E7BCE010E94C34803C0CE010E94C4
:1051C000151CCE010E94D4480E948275D8CF82EF70
:1051D0009CE00E949D79EECFCF93DF9320C0809119
:1051E0005D0D882381F0888181FF04C08E819F81BD
:1051F0004D9739F182EF9CE0BE010E945E7BCE01AB
:105200000E94C34803C0CE010E94151CCE010E941B
:10521000D4480E94BB1B8EE89FE00E94BA998091FF
:10522000810B882329F40E945944EC01009771F006
:105230000E94CD498EE89FE00E94BA99209779F6A6
:10524000E8CF82EF9CE00E949D79D9CFDF91CF918A
:105250000895CF93DF93EC0105C0219683E294E09B
:105260000E94674E68816623C1F7DF91CF91089550
:10527000AF92BF92CF92DF92EF92FF920F931F9364
:10528000DF93CF93CDB7DEB72B970FB6F894DEBF81
:105290000FBECDBFC62ED92E1B869BE0A92EB12CEA
:1052A000AC0EBD1E6C2D9D2D2AE030E040E050E09C
:1052B0000E949CC9D52E7901042F152F80E3C80EBA
:1052C000C801B7012AE030E040E050E00E9449C93F
:1052D000C61AF501C2925F01CE2C7F2D802FE114FA
:1052E000F10401051105F1F6CF010E9429292B9641
:1052F0000FB6F894DEBF0FBECDBFCF91DF911F91E7
:105300000F91FF90EF90DF90CF90BF90AF900895F6
:10531000EF92FF920F931F937B018C0197FF0DC0BB
:1053200083E294E06DE20E94674E10950095F09440
:10533000E094E11CF11C011D111DC801B7010E9480
:1053400038291F910F91FF90EF900895CF93DF932D
:10535000EC0104C083E294E00E94674EFE01649178
:1053600021966623B9F7DF91CF910895EF92FF92CE
:105370000F931F937A018B010E94A629C801B701E0
:105380000E9438290E94621A1F910F91FF90EF909E
:105390000895EF92FF920F931F937B010E94A6291D
:1053A0000027F7FC0095102FC801B7010E9488293B
:1053B0000E94621A1F910F91FF90EF900895EF9253
:1053C000FF920F931F937A018B010E94A629C801B7
:1053D000B7010E9438291F910F91FF90EF90089517
:1053E000EF92FF920F931F937A018B010E94A629DF
:1053F000C801B7010E9488291F910F91FF90EF907B
:105400000895EF92FF920F931F937B010E94A629AC
:105410000027F7FC0095102FC801B7010E948829CA
:105420001F910F91FF90EF9008950F931F938B01A1
:105430000E94A629C8010E9429291F910F91089551
:105440000F931F938B010E94A629C8010E9429294E
:105450000E94621A1F910F9108950E94A6290E942E
:10546000621A08950F931F938C018AEA92E00E94BA
:10547000A629C8010E942D2A1F910F9108950F930C
:105480001F938C0181EB92E00E94A629C8010E9423
:105490002D2A1F910F9108950F931F938C0181EB7B
:1054A00092E00E94A629C8010E94A6291F910F918F
:1054B00008959F92AF92BF92CF92DF92EF92FF92A8
:1054C0000F931F93CF93DF937B018C01942EA80140
:1054D00097010E942DC9882319F082EA92E020C02A
:1054E000C0E0D0E057016801E894D7F8C601B501E3
:1054F0002FEF3FEF4FE75FE70E942DC9882351F45C
:10550000C601B5012FEF3FEF4FE75FE70E94C3C52C
:10551000181614F0C1E0D0E0219729F086EA92E055
:105520000E94A62965C0C801B70120E030E040E034
:1055300050E00E94C3C588234CF483E294E06DE2FE
:105540000E94674E17FB109517F9109520E030E088
:1055500040E05FE3DD240BC0CA01B90120E030E088
:1055600040E251E40E94CAC59B01AC01D394D91416
:1055700098F3C801B7010E94FDC45B016C010E9451
:1055800037C67B018C010E943829992029F083E2DB
:1055900094E06EE20E94674EC801B7010E9463C6A4
:1055A0009B01AC01C601B5010E94FCC41FC020E0F4
:1055B00030E040E251E40E9473C87B018C010E94FC
:1055C00032C65B016C01CC24B7FCC094DC2CC60154
:1055D000B5010E948829C601B5010E9465C69B01DC
:1055E000AC01C801B7010E94FCC49A949920F9F655
:1055F000DF91CF911F910F91FF90EF90DF90CF90AF
:10560000BF90AF909F900895DF92EF92FF920F931B
:105610001F937A018B01D22E0E94A629C801B701DF
:105620004D2D0E94592A1F910F91FF90EF90DF900E
:105630000895EF92FF920F931F93CF93DF93162F4E
:10564000072FE42EF22E0E94A629212F302FC90108
:10565000EC0110E00AC049915991699179918CE669
:1056600094E02F2D0E94042B1F5F1E15A0F30E94B3
:10567000621ADF91CF911F910F91FF90EF900895E3
:10568000DF92EF92FF920F931F937A018B01D22E3C
:105690000E94A629C801B7014D2D0E94592A0E94D7
:1056A000621A1F910F91FF90EF90DF9008959C0177
:1056B000F999FECF32BD21BDF89A80B508959C01BD
:1056C000F999FECF1FBA32BD21BD60BD0FB6F89467
:1056D000FA9AF99A0FBE0895885C904022E08835C6
:1056E000920778F464E670E00E9475C96F5F7F4F9F
:1056F0008BE997E00E94012A83E294E060E20E9435
:10570000674E08950F931F93CF93DF93EC018B01A6
:1057100081EA97E0BE010E94012A83E294E060E200
:105720000E94674EF999FECFD2BDC1BDF89A60B50F
:1057300070E0882777FD8095982F0E94882983E262
:1057400094E060E20E94674ECE010E946C2BC8017B
:105750000E942D2ADF91CF911F910F910895CF9232
:10576000DF92EF92FF920F931F938C016B0188EAF7
:1057700097E0B8010E94012A83E2E82E84E0F82E27
:10578000C70160E20E94674EC80167E57BE20E94A4
:105790003A18AA2797FDA095BA2FBC01CD010E9407
:1057A0008829C70160E20E94674EC8010E946C2BE5
:1057B000C6010E942D2A1F910F91FF90EF90DF905C
:1057C000CF900895CF92DF92EF92FF920F931F93A5
:1057D0008C016B018FEA97E0B8010E94012A93E2E5
:1057E000E92E94E0F92EC70160E20E94674EC801DD
:1057F00067E57BE20E9414180E948829C70160E2D5
:105800000E94674EC8010E946C2BC6010E942D2A7F
:105810001F910F91FF90EF90DF90CF900895F9992D
:10582000FECF12BC11BCF89A80B5823071F48BE4C3
:1058300090E067E57BE20E9414186093D5017093B5
:10584000D6018093D7019093D8010895DF93CF9329
:1058500000D000D0CDB7DEB7BC01CE01019644E048
:1058600050E027E53BE20E94F81729813A814B81FD
:105870005C81B901CA010F900F900F900F90CF91EA
:10588000DF910895BF92CF92DF92EF92FF920F9334
:105890001F938C016B01B42E86EB97E0B8010E9438
:1058A000012A23E2E22E24E0F22EC70160E20E94E8
:1058B000674EC8010E94262C4B2D0E94592AC70111
:1058C00060E20E94674EC8010E946C2BC6010E94D4
:1058D0002D2A1F910F91FF90EF90DF90CF90BF90F6
:1058E00008958BE490E06DEB77E00E94E22B81E875
:1058F00090E066EC77E043E00E94422C8DE790E078
:105900006BED77E00E94E22B8FE490E06EEE77E0A3
:105910000E94E22B83E590E06CE078E00E94E22BAD
:1059200083E090E06FEE78E044E00E94422C87E054
:1059300090E063E079E044E00E94422C8BE090E04C
:1059400067E179E044E00E94422C8FE090E06BE256
:1059500079E043E00E94422C83E190E067E479E043
:1059600043E00E94422C87E190E063E679E043E067
:105970000E94422C8BE190E06FE779E043E00E94C7
:10598000422C8FE190E06DE979E043E00E94422CE7
:1059900083E290E06BEB79E043E00E94422C87E2E7
:1059A00090E06BEC78E043E00E94422C8FE290E0C4
:1059B0006CED78E043E00E94422C85E890E065E3DE
:1059C00078E043E00E94422C89E890E065E478E0CA
:1059D00043E00E94422C8DE890E065E578E043E0EA
:1059E0000E94422C81E990E065E678E043E00E9465
:1059F000422C85E990E067E778E043E00E94422C82
:105A000089E990E069E878E043E00E94422C83E372
:105A100090E069ED79E043E00E94422C87E390E05A
:105A200066EF79E043E00E94422C8BE390E063E173
:105A30007AE043E00E94422C8FE390E060E37AE05A
:105A400043E00E94422C83E490E064E57AE043E086
:105A50000E94422C87E490E068E77AE043E00E94ED
:105A6000422C80E793E06DEF76E00E94822B8AE67D
:105A700090E069E47BE00E94822B8BE690E060E698
:105A80007BE00E94822B8CE790E062E77BE00E9443
:105A9000822B8CE690E064E87BE043E00E94422C9D
:105AA00080E790E063E97BE043E00E94422C84E7DA
:105AB00090E062EA7BE043E00E94422C88E790E0BD
:105AC00061EB7BE00E94822B88EC90E06BEC7BE04A
:105AD00043E00E94422C8CEC90E068ED7BE043E0D8
