:100000000C947E1E0C94A91E0C94A91E0C94A91E7F
:100010000C94A91E0C94A91E0C94A91E0C94A91E44
:100020000C94A91E0C94BBE70C94A91E0C94A91E59
:100030000C94A91E0C947F890C94A91E0C94A91EE3
:100040000C94A91E0C942E920C94C9E40C94A91E35
:100050000C94053B0C94A91E0C94A91E0C94A91E8B
:100060000C94A91E0C94A91E0C9420DD0C94A91EBE
:100070000C94A91E0C94A91E0C94A91E0C94A91EE4
:100080000C94A91E0C94A91E0C94A91E084AD73BD7
:100090003BCE016E84BCBFFDC12F3D6C74319ABD57
:1000A00056833DDA3D00C77F11BED9E4BB4C3E917B
:1000B0006BAAAABE000000803F05A84CCDB2D44E6A
:1000C000B93836A9020C50B9918688083CA6AAAA6C
:1000D0002ABE000000803F4D383420582059205A55
:1000E0002045006563686F3A0043616E6E6F74204F
:1000F000656E746572207375626469723A20004D92
:100100003234004D3233202573006175746F2569D8
:100110002E67004572726F723A006572726F7220BC
:1001200077726974696E6720746F2066696C650008
:100130004E6F74205344207072696E74696E67004C
:100140002F005344207072696E74696E6720627963
:10015000746520002E0044656C6574696F6E2066BE
:1001600061696C65642C2046696C653A20004669BB
:100170006C652064656C657465643A002E006F7070
:10018000656E206661696C65642C2046696C653A11
:10019000200057726974696E6720746F2066696CFD
:1001A000653A20002E006F70656E206661696C658F
:1001B000642C2046696C653A20002E006F70656ED5
:1001C000206661696C65642C2046696C653A200084
:1001D00046696C652073656C6563746564002053C3
:1001E000697A653A200046696C65206F70656E65B6
:1001F000643A20002E006F70656E206661696C6540
:10020000642C2046696C653A20004E6F7720667238
:100210006573682066696C653A20004E6F772064CC
:100220006F696E672066696C653A20002220706FE6
:1002300073002220706172656E743A220053554239
:10024000524F5554494E452043414C4C20746172E5
:100250006765743A2200747279696E6720746F2042
:1002600063616C6C207375622D67636F64652066D3
:10027000696C6573207769746820746F6F206D6195
:100280006E79206C6576656C732E204D4158206C1C
:100290006576656C2069733A00534420636172642B
:1002A000206F6B006F70656E526F6F7420666169AE
:1002B0006C656400766F6C756D652E696E6974206F
:1002C0006661696C656400534420696E69742066D8
:1002D00061696C006563686F3A0048617264636FBE
:1002E0006465642044656661756C7420536574743C
:1002F000696E6773204C6F616465640053746F723C
:1003000065642073657474696E67732072657472B6
:100310006965766564002044002049002020204D56
:100320003330312050005049442073657474696E35
:1003300067733A00205A0020590020204D32303691
:10034000205800486F6D65206F66667365742028BD
:100350006D6D293A00204500205A002058002042A7
:100360000020540020204D32303520530041647667
:10037000616E636564207661726961626C65733A6F
:1003800020533D4D696E2066656564726174652019
:10039000286D6D2F73292C20543D4D696E20747289
:1003A0006176656C20666565647261746520286D90
:1003B0006D2F73292C20423D6D696E696D756D201E
:1003C0007365676D656E742074696D6520286D7343
:1003D000292C20583D6D6178696D756D2058592024
:1003E0006A65726B20286D6D2F73292C20205A3D71
:1003F0006D6178696D756D205A206A65726B202871
:100400006D6D2F73292C2020453D6D6178696D75C8
:100410006D2045206A65726B20286D6D2F73290051
:1004200020540020204D3230342053004163636556
:100430006C65726174696F6E3A20533D61636365E8
:100440006C65726174696F6E2C20543D72657472B4
:1004500061637420616363656C65726174696F6E5A
:1004600000204500205A0020590020204D32303114
:100470002058004D6178696D756D20416363656C2E
:1004800065726174696F6E20286D6D2F7332293A21
:1004900000204500205A0020590020204D323033E2
:1004A0002058004D6178696D756D206665656472D0
:1004B0006174657320286D6D2F73293A0020450003
:1004C000205A0020590020204D3932205800537402
:1004D0006570732070657220756E69743A0053659B
:1004E0007474696E67732053746F7265640065631A
:1004F000686F3A004572726F723A0053544F505011
:1005000045442E20005072696E7465722073746FBA
:10051000707065642064756520746F206572726FF9
:1005200072732E2046697820746865206572726F38
:100530007220616E6420757365204D3939392074DD
:100540006F20726573746172742E202854656D700B
:100550006572617475726520697320726573657464
:100560002E20536574206974206166746572207250
:10057000657374617274696E6729004B494C4C4510
:10058000442E20005072696E7465722068616C742C
:1005900065642E206B696C6C28292063616C6C6526
:1005A0006421006F6B00526573656E643A2000220F
:1005B00000556E6B6E6F776E20636F6D6D616E644C
:1005C0003A2022004368616E67652066696C616D40
:1005D000656E74006C636420636F6E747261737413
:1005E0002076616C75653A20007A5F6D696E3A20FD
:1005F00000795F6D696E3A2000785F6D696E3A2010
:1006000000205A3A0020593A0020436F756E74203A
:10061000583A200020453A00205A3A0020593A0022
:10062000583A00414E45543B20687474703A2F2F5D
:100630007777772E616E657433642E636F6D0A0071
:100640007072696E746572204F66662E0042656432
:1006500020646F6E652E0020423A0020453A005417
:100660003A004265642048656174696E672E0048EF
:10067000656174696E6720646F6E652E0020573A5D
:100680000020453A00543A0048656174696E672E4F
:100690002E2E002042403A0020403A00202F003AFF
:1006A00000205400202F0020423A00202F006F6BC2
:1006B00020543A002569206D696E2C20256920732D
:1006C000656300456E642066696C65206C697374AF
:1006D00000426567696E2066696C65206C69737499
:1006E000004E6F206D6F76652E00526573756D69D3
:1006F0006E67207072696E74005761697420666F4E
:100700007220757365722E2E2E00536C6565702EE7
:100710002E2E00FFFFFF00005C430000634300003B
:100720007A430000A0400000A040000040400000CC
:100730000000000080C00000000000000000000079
:1007400080C00000000000005C4300005F43000028
:100750007A43256920686F757273202569206D6959
:100760006E7574657300446F6E65207072696E7487
:10077000696E672066696C650053544F505045445C
:100780002E20005072696E7465722073746F7070E1
:1007900065642064756520746F206572726F727372
:1007A0002E2046697820746865206572726F722009
:1007B000616E6420757365204D39393920746F205E
:1007C000726573746172742E202854656D70657241
:1007D00061747572652069732072657365742E206B
:1007E0005365742069742061667465722072657344
:1007F00074617274696E6729006F6B004E6F204CD4
:10080000696E65204E756D62657220776974682027
:10081000636865636B73756D2C204C617374204C39
:10082000696E653A20004E6F20436865636B73758F
:100830006D2077697468206C696E65206E756D62D5
:1008400065722C204C617374204C696E653A2000EF
:10085000636865636B73756D206D69736D61746337
:10086000682C204C617374204C696E653A20004CF2
:10087000696E65204E756D626572206973206E6FBA
:1008800074204C617374204C696E65204E756D62E6
:1008900065722B312C204C617374204C696E653A63
:1008A00020004D31313000446F6E652073617669F0
:1008B0006E672066696C652E006F6B004D323900E3
:1008C0002020506C616E6E6572427566666572427C
:1008D000797465733A20002046726565204D656D18
:1008E0006F72793A20004D617920323320323031F5
:1008F0003600436F6D70696C65643A20002870653E
:1009000079736F6E2C203230313630353233290016
:10091000207C20417574686F723A20004D61792007
:10092000323320323031362031363A35363A3535A9
:1009300000204C61737420557064617465643A20C2
:1009400000322E302E3000414E45540020536F6649
:100950007477617265205265736574002057617405
:100960006368646F67205265736574002042726F1C
:10097000776E206F7574205265736574002045781A
:100980007465726E616C20526573657400506F7788
:1009900065725570007374617274002200656E7127
:1009A0007565696E672022002200656E7175656944
:1009B0006E672022006563686F3A0020746F6F20B5
:1009C0006C6F6E6720657874727573696F6E2070D6
:1009D000726576656E7465640020636F6C64206573
:1009E0007874727573696F6E2070726576656E7457
:1009F0006564007C3C3E5E2B3D3F2F5B5D3B2C2ABB
:100A0000225C0045313A200045303A20005A3A2015
:100A100000593A2000583A20004D53312C4D5332A2
:100A20002050696E730A0024F404D9201BC40C5CA6
:100A30000E9804C4095F0265077101F405F900FB13
:100A400004B30048048700C103690058035500033C
:100A5000034500BE023A008402310053022A0029F5
:100A600002250004022000E4011C00C8011900AFA7
:100A70000117009801140084011300710110006136
:100A800001100051010E0043010D0036010B002B37
:100A9000010B0020010B00150109000C01090003E6
:100AA000010800FB000800F3000800EB000700E469
:100AB000000600DE000600D8000600D2000600CCCA
:100AC000000500C7000500C2000500BD000400B914
:100AD000000400B5000400B1000400AD000400A94A
:100AE000000400A5000300A20003009F0004009B77
:100AF000000300980003009500020093000300909B
:100B00000003008D0002008B0003008800020086B5
:100B100000020084000300810002007F0002007DCB
:100B20000002007B000200790002007700010076DD
:100B30000002007400020072000100710002006FE8
:100B40000002006D0001006C0002006A00010069F3
:100B500000020067000100660001006500010064FA
:100B60000002006200010061000100600001005FFE
:100B70000002005D0001005C0001005B0001005A02
:100B80000001005900010058000100570001005603
:100B90000001005500010054000100530000005303
:100BA0000001005200010051000100500001004FFF
:100BB0000001004E0000004E0001004D0001004CFD
:100BC0000001004B0000004B0001004A00010049F9
:100BD00000010048000000480001004700010046F5
:100BE00000000046000100450000004500010044EF
:100BF00000010043000000430001004200000042E9
:100C00000001004100000041000100400001003FE0
:100C10000000003F0001003E0000003E0001003DDA
:100C20000000003D0001003C0000003C0000003CD2
:100C30000001003B0000003B0001003A0000003AC8
:100C400000010039000000390001003800000038C0
:100C500000000038000100370000003700010036B6
:100C600000000036000000360001003500000035AD
:100C700000000035000100340000003400000034A2
:100C80000001003300000033000000330001003297
:100C9000000000320000003200010031000000318D
:100CA0000000003100010030000000300000003082
:100CB0000001002F0000002F0000002F0000002F77
:100CC0000001002E0000002E0000002E0001002D6B
:100CD0000000002D0000002D0000002D0001002C60
:100CE0000000002C0000002C0000002C0001002B54
:100CF0000000002B0000002B0000002B0001002A48
:100D00000000002A0000002A0000002A000100293B
:100D1000000000290000002900000029000000292F
:100D20000001002800000028000000280000002822
:100D30000000002800010027000000270000002715
:100D40000000002700000027000100260000002608
:100D500000000026000000260000002600010025FB
:100D600000000025000000250000002500000025EF
:100D700000000025000100240000002400000024E1
:100D800000000024000000240001002300000023D4
:100D900000000023000000230000002300000023C7
:100DA00000000023000100220000002200000022B9
:100DB00000000022000000220000002200010021AB
:100DC000000000210000002100000021000000219F
:100DD0000000002100000021000100200000002090
:100DE0000000002000000020000000200000002083
:100DF00000000020000000200001001F0000001F74
:100E00000000001F0000001F0000001F0000001F66
:100E10000000001F0001001E0000001E0000001E58
:100E20000000001E00000024F4D43050C38E20C205
:100E3000A24017828B7011127A910D816CD90AA889
:100E400061E108C7586607615143061E4B5D05C145
:100E500045A7041A411104093D9803713931034033
:100E600036DB0265339102D4305402802E1D0263BA
:100E70002CEE01752AC501B028A001102781018F31
:100E80002564012B244B01E0223401AC211F018D8C
:100E9000200D01801FFC00841EED00971DDF00B8AF
:100EA0001CD200E61BC600201BBC00641AB200B2B4
:100EB00019A8000A19A0006A189900D117910040DA
:100EC000178B00B516840031167E00B31579003AF1
:100ED000157300C7146F0058146A00EE136600887B
:100EE00013630025135E00C7125B006C12570015D8
:100EF000125400C111510070114F0021114B00D646
:100F00001049008D1047004610440002104200C0F6
:100F10000F4000800F3E00420F3C00060F3B00CB0D
:100F20000E3800930E37005C0E3500270E3400F3A8
:100F30000D3200C10D3100900D3000600D2E0032D9
:100F40000D2D00050D2C00D90C2B00AE0C290085B1
:100F50000C29005C0C2700350C27000E0C2600E83D
:100F60000B2400C40B2400A00B23007D0B23005A8C
:100F70000B2100390B2100180B2000F80A1F00D9A3
:100F80000A1E00BB0A1E009D0A1D00800A1D006388
:100F90000A1C00470A1B002C0A1B00110A1A00F742
:100FA000091A00DD091900C4091900AB09190092DA
:100FB0000917007B091800630917004C0916003651
:100FC000091600200916000A091500F5081500E0A9
:100FD000081400CC081400B8081400A408140090E9
:100FE0000813007D0812006B081300580812004611
:100FF0000812003408110023081100120811000122
:10100000081100F0071000E0071000D0071000C022
:10101000071000B0070F00A107100091070E008312
:10102000070F0074070F0065070E0057070E0049F1
:10103000070E003B070D002E070E0020070D0013C2
:10104000070D0006070D00F9060C00ED060D00E087
:10105000060C00D4060C00C8060C00BC060C00B040
:10106000060C00A4060B0099060C008D060B0082EE
:10107000060B0077060B006C060B0061060A005792
:10108000060B004C060A0042060A0038060A002E2B
:10109000060A0024060A001A060A001006090007BC
:1010A000060A00FD050900F4050900EB050900E248
:1010B000050900D9050900D0050900C7050900BECA
:1010C000050900B5050800AD050800A50509009C47
:1010D000050800940508008C050800840508007CBC
:1010E000050800740508006C050700650508005D2B
:1010F000050700560508004E050700470507004094
:1011000005080038050700310507002A05070023F8
:101110000507001C050600160507000F0507000857
:1011200005060002050700FB040600F5040700EEB3
:10113000040600E8040600E2040700DB040600D50C
:10114000040600CF040600C9040600C3040600BD5F
:10115000040600B7040600B1040500AC040600A6AE
:10116000040600A00405009B0406009504050090F9
:101170000406008A04050085040500800406007A40
:1011800004050075040500700405006B0405006685
:10119000040500610405005C0405005704050052C5
:1011A0000405004D04050048040500430405003E05
:1011B0000404003A04050035040500300404002C42
:1011C00004050027040400230405001E0404001A7B
:1011D00004040016040500110404000D04040009B1
:1011E0000405000404040000040400FC030400F8E7
:1011F000030400F4030400F0030400EC030400E81B
:10120000030400E4030400E0030400DC030400D84A
:10121000030400D4030400D0030400CC030400C87A
:10122000030300C50303006563686F3A00656E64DD
:1012300073746F7073206869743A205A00205A3AA8
:1012400000656E6473746F7073206869743A205916
:101250000020593A00656E6473746F70732068697A
:10126000743A20580020583A00656E6473746F70A9
:1012700073206869743A20004572726F723A0045B3
:1012800072723A204D415854454D50204245440019
:1012900054656D70657261747572652068656174FE
:1012A000656420626564207377697463686564208F
:1012B0006F66662E204D415854454D50207472691A
:1012C000676765726564202121004572723A204D7E
:1012D000494E54454D50003A204578747275646506
:1012E00072207377697463686564206F66662E2068
:1012F0004D494E54454D502074726967676572655B
:10130000642021004572723A204D415854454D5099
:10131000003A204578747275646572207377697439
:1013200063686564206F66662E204D415854454DB4
:101330005020747269676765726564202100202DF2
:1013400020496E76616C6964206578747275646595
:1013500072206E756D62657220210070012C019003
:10136000012701B0012201C0011D01F00118011087
:1013700002130130020E016002090190020401C053
:1013800002FF000003FA004003F5008003F000D0E4
:1013900003EB002004E6007004E100E004DC004000
:1013A00005D700C005D2004006CD00D006C8008099
:1013B00007C3003008BE00F008B900C009B400B08F
:1013C0000AAF00B00BAA00D00CA500000EA0005080
:1013D0000F9B00C01096005012910000148C00C0AA
:1013E000158700B0178200B0197D00D01B7800006F
:1013F0001E730040206E0090226900F024640040BB
:10140000275F0090295A00E02B5500102E50002035
:10141000304B0010324600E033410090353C001064
:1014200037370070383200A0392D00B03A2800A0BC
:101430003B2300603C1E00103D1900903D1400103D
:101440003E0F00703E0A00C03E0500003F00005005
:101450004944204175746F74756E652066696E69C4
:1014600073686564212050757420746865206C6110
:101470007374204B702C204B6920616E64204B6488
:1014800020636F6E7374616E74732066726F6D206B
:1014900061626F766520696E746F20436F6E666956
:1014A0006775726174696F6E2E68005049442041FF
:1014B00075746F74756E65206661696C6564212052
:1014C00074696D656F75740020403A006F6B20542D
:1014D0003A006F6B20423A00504944204175746FC6
:1014E00074756E65206661696C6564212054656D54
:1014F000706572617475726520746F6F20686967BA
:101500006800204B643A2000204B693A2000204BB1
:10151000703A200020436C61737369632050494422
:1015200020002054753A2000204B753A2000206D91
:1015300061783A2000206D696E3A200020643A20DC
:101540000020626961733A200000060900FE06016E
:101550008902FE20FFFE07FE06FE000000060007CF
:1015600001060606020080808080008003030306D7
:101570000103A0A0A00507070600FF5050F850F88F
:1015800050500509090600FE2070A8A07028A87018
:10159000200608080600FF40A84810204854080507
:1015A00007070600FF6090906098906801030306AB
:1015B00002038080800207070602FF40808080804F
:1015C00080400207070602FF8040404040408005FF
:1015D00005050600008850F850880505050600003E
:1015E0002020F820200204040602FEC040408005AE
:1015F0000101060002F8020202060200C0C0040651
:101600000606010010102040808004060606010036
:1016100060909090906003060606010040C0404034
:1016200040E00406060601006090102040F0040629
:1016300006060100F020601010E005060606000016
:1016400010305090F810040606060100F080E010FB
:1016500010E00406060601006080E0909060040639
:1016600006060100F01010204040040606060100A6
:101670006090609090600406060601006090907093
:101680001060020505060200C0C000C0C0020707C6
:101690000602FEC0C000C0404080050505060000EF
:1016A0001860806018050303060001F800F80505BE
:1016B00005060000C0300830C004070706010060BE
:1016C0009010604000400506060600007090A8B02B
:1016D0008070050606060000205088F888880506F8
:1016E00006060000F088F08888F00406060601006F
:1016F000609080809060040606060100E090909063
:1017000090E0040606060100F080E08080F0040608
:1017100006060100F080E0808080040606060100D5
:10172000609080B090600406060601009090F090F2
:101730009090030606060100E040404040E00506A8
:10174000060600003810101090600406060601001E
:1017500090A0C0A0909004060606010080808080C2
:1017600080F005060606000088D8A8A88888040628
:101770000606010090D0B090909005060606000085
:10178000708888888870040606060100E09090E062
:1017900080800407070601FF609090D0B0601004BD
:1017A0000606060100E09090E0909004060606010F
:1017B00000609040209060050606060000F820209A
:1017C000202020040606060100909090909060046E
:1017D0000606060100909090F0606005060606007F
:1017E000008888A8A8D8880506060600008850202A
:1017F0002050880506060600008888502020200416
:101800000606060100F010204080F00306060601DF
:1018100000E080808080E0040606060100808040B1
:10182000201010030606060100E020202020E0051D
:1018300003030600032050880501010600FEF8029C
:101840000202060204804004040406010070909025
:10185000700406060601008080E09090E004040415
:1018600006010070808070040606060100101070EA
:1018700090907004040406010060B0C07004060675
:10188000060100205040E040400406060601FE60CC
:1018900090907010600406060601008080E0909031
:1018A000900306060601004000C04040E00308081F
:1018B0000601FE200060202020A04004060606014C
:1018C000008080A0C0A090030606060100C0404032
:1018D0004040E0050404060000D0A8A888040404E1
:1018E000060100E0909090040404060100609090CE
:1018F000600406060601FEE09090E0808004060683
:101900000601FE709090701010040404060100A0FF
:10191000D0808004040406010070C030E004060694
:101920000601004040E040502004040406010090FD
:101930009090700404040601009090606005040417
:1019400006000088A8A85004040406010090606006
:10195000900406060601FE909090709060040404C6
:10196000060100F02040F003070706010020404078
:10197000804040200107070602FF80808080808031
:101980008003070706010080404020404080040299
:101990000206010350A0FFFFFFFFFFFFFFFFFFFF55
:1019A000FFFFFFFFFFFFFFFFFFFFFFFFFFFFFFFF47
:1019B000FFFFFFFFFFFFFF00000006000701060614
:1019C0000602008000808080800406060601FF2059
:1019D00070A0A070200507070600FF304840F040C7
:1019E00040F8050505060000A8508850A805060621
:1019F0000600008850F820F8200107070602FF8043
:101A00008080008080800407070601FF708060905E
:101A10006010E0030101060105A0060707060000AB
:101A2000788494A494847803050506010160A0607D
:101A300000E00505050600002850A0502804030317
:101A4000060100F01010040101060102F00607076C
:101A50000600007884B4A4A484780401010601057A
:101A6000F00403030601026090600507070600FF0B
:101A70002020F8202000F803050506010140A020E1
:101A800040E0030505060101C0204020C00202021B
:101A900006020440800405050601FF9090B0D08046
:101AA00005060606000078E8E86828280101010616
:101AB0000202800202020602FE40800305050601C2
:101AC0000140C04040E003050506010140A0400080
:101AD000E0050505060000A0502850A005080806EE
:101AE00000FF40C04050703078100508080600FF25
:101AF00040C04050680810380508080600FFC020A4
:101B00004030F03078100407070601002000206004
:101B100080906005070706000040202050708888EC
:101B20000507070600001020205070888805070769
:101B30000600002050205070888805070706000026
:101B400028502050708888050707060000500020A4
:101B500050708888050707060000205020507088C4
:101B60008805060606000078A0F0A0A0B8040808C2
:101B70000601FE6090808090602040040707060107
:101B8000004020F080E080F00407070601002040BC
:101B9000F080E080F00407070601002050F080E0AC
:101BA00080F00407070601005000F080E080F00399
:101BB00007070601008040E0404040E003070706B9
:101BC00001002040E0404040E003070706010040DC
:101BD000A0E0404040E0030707060100A000E0400D
:101BE0004040E00506060600007048E848487004DA
:101BF000070706010050A090D0B090900407070698
:101C000001004020609090906004070706010020CA
:101C1000406090909060040707060100205060909B
:101C200090906004070706010050A06090909060BB
:101C300004070706010050006090909060050505BC
:101C400006000088502050880408080601FF107024
:101C5000B0B0D0D0E080040707060100402090908B
:101C600090906004070706010020409090909060DB
:101C70000407070601002050909090906004070729
:101C80000601005000909090906005070706000044
:101C90001020885020202004060606010080E090D5
:101CA00090E0800406060601006090A0A090A004C9
:101CB0000707060100402000709090700407070697
:101CC000010020400070909070040707060100207A
:101CD00050007090907004070706010050A000703B
:101CE00090907004060606010050007090907004F9
:101CF000070706010020502070909070050404062C
:101D0000000070A8B0780406060601FE708080709E
:101D1000204004070706010040200060B0C07004A6
:101D2000070706010020400060B0C07004070706E6
:101D3000010020500060B0C070040606060100508B
:101D40000060B0C070030707060100804000C0407B
:101D500040E0030707060100204000C04040E003C8
:101D6000070706010040A000C04040E00306060649
:101D70000100A000C04040E00407070601003060F9
:101D8000107090906004070706010050A000E090DA
:101D900090900407070601004020006090906004C6
:101DA00007070601002040006090906004070706C6
:101DB0000100205000609090600407070601005069
:101DC000A00060909060040606060100500060903C
:101DD00090600505050600002000F80020040404BA
:101DE00006010070B0D0E0040707060100402000A3
:101DF000909090700407070601002040009090909A
:101E000070040707060100205000909090700406AF
:101E1000060601005000909090700409090601FE2A
:101E20002040009090907090600408080601FE80A9
:101E300080E09090E080800408080601FE50009049
:101E4000909070906000060900FE070199032B2016
:101E5000FFFE08FE07FE000000060000010707065F
:101E6000020080808080800080030303060104A0BC
:101E7000A0A00507070600005050F850F850500584
:101E800007070600002070A07028702005070706CD
:101E9000000048A8502050A8900507070600004001
:101EA000A0A040A89068010303060204808080037C
:101EB00007070601002040808080402003070706B6
:101EC0000100804020202040800505050600018893
:101ED00050F850880505050600012020F820200351
:101EE00003030601FF604080050101060003F803BB
:101EF00003030601FF40E04005070706000008084D
:101F00001020408080050707060000205088888840
:101F100050200507070600002060A0202020F805BB
:101F20000707060000708808304080F8050707069C
:101F30000000F80810300888700507070600001038
:101F4000305090F81010050707060000F880B0C860
:101F5000088870050707060000304080B0C8887008
:101F6000050707060000F808101020404005070785
:101F700006000070888870888870050707060000D2
:101F8000708898680810600307070601FF40E0406A
:101F90000040E0400307070601FF40E040006040CA
:101FA0008004070706010010204080402010050330
:101FB00003060002F800F80407070601008040202D
:101FC00010204080050707060000708810202000C0
:101FD00020050707060000708898A8B080700507E4
:101FE0000706000020508888F88888050707060043
:101FF00000F04848704848F0050707060000708860
:102000008080808870050707060000F0484848482F
:1020100048F0050707060000F88080F08080F8058A
:102020000707060000F88080F0808080050707061B
:102030000000708880809888700507070600008877
:102040008888F8888888030707060100E040404038
:102050004040E0050707060000381010101090609F
:102060000507070600008890A0C0A0908805070714
:10207000060000808080808080F805070706000049
:102080008888D8A88888880507070600008888C837
:10209000A8988888050707060000708888888888BF
:1020A00070050707060000F08888F080808005082A
:1020B000080600FF7088888888A87008050707064A
:1020C0000000F08888F0A0908805070706000070DF
:1020D000888070088870050707060000F820202017
:1020E00020202005070706000088888888888870D7
:1020F000050707060000888888505050200507070C
:10210000060000888888A8A8D88805070706000068
:102110008888502050888805070706000088885066
:1021200020202020050707060000F8081020408026
:10213000F8030707060100E08080808080E0050743
:1021400007060000808040201008080307070601EA
:1021500000E02020202020E005030306000420509A
:10216000880501010600FFF802020206020680400F
:102170000505050600007008788878050707060041
:10218000008080B0C888C8B00505050600007088CA
:102190008088700507070600000808689888986816
:1021A0000505050600007088F88070050707060021
:1021B00000304840F04040400507070600FE7888A0
:1021C00088780888700507070600008080B0C888F6
:1021D00088880307070601004000C0404040E00433
:1021E00009090601FE1000301010109090600507DC
:1021F0000706000080808890E090880307070601AA
:1022000000C04040404040E0050505060000D0A861
:10221000A8A888050505060000B0C88888880505B7
:102220000506000070888888700507070600FEB064
:10223000C888C8B080800507070600FE689888989F
:10224000680808050505060000B0C88080800505FF
:102250000506000070807008F005070706000040C2
:1022600040F0404048300505050600008888889801
:1022700068050505060000888850502005050506FC
:1022800000008888A8A85005050506000088502091
:1022900050880507070600FE88889868088870053A
:1022A0000505060000F8102040F8040707060100A5
:1022B000304020C0204030010707060200808080A7
:1022C00080808080040707060100C0204030402045
:1022D000C005030306000448A890000000010000A8
:1022E00000000001000000000001000000000001EB
:1022F00000000000000100000000000100000000DC
:1023000000010000000000010000000000010000CA
:1023100000000001000000000001000000000001BA
:1023200000000000000100000000000100000000AB
:10233000000100000000000100000000000100009A
:10234000000000010000000000010000000000018A
:10235000000000000001000000000001000000007B
:10236000000100000000000100000000000100006A
:10237000000000010000000000010000000000015A
:10238000000000000001000000000001000000004B
:10239000000100000000000100000000000100003A
:1023A0000000000600000107070602008000808090
:1023B0008080800507070600FF2078A0A0A0782075
:1023C000050707060000304840E04048B005050515
:1023D00006000088705070880508080600FF88888D
:1023E0005020F8202020010707060200808080008E
:1023F0008080800508080600FF7080E0904838085B
:1024000070030101060107A0050707060000708898
:10241000A8C8A888700406060601017090B0500094
:10242000F006050506000024489048240402020630
:102430000102F010040101060103F0050707060080
:10244000007088E8C8C88870050101060007F80315
:10245000030306010440A0400506060600002020F4
:10246000F82020F804050506010360902040F004E0
:102470000505060103E0106010E0020202060206F4
:1024800040800506060600FF888888C8B0800507DA
:102490000706000078E8E8682828280101010602FC
:1024A00003800202020602FE4080030505060103C6
:1024B00040C04040E00406060601016090906000C4
:1024C000F006050506000090482448900609090614
:1024D00000FF40C04040E40C143C0406090906001B
:1024E000FF40C04040E81404081C0509090600FF2D
:1024F000C0204020C81828780805070706000020DB
:1025000000202040887005080806000040207088E0
:1025100088F888880508080600001020708888F868
:1025200088880508080600002050708888F8888888
:1025300005080806000048B0708888F888880508F3
:10254000080600005000708888F88888050808068A
:1025500000002050708888F8888806070706000069
:102560003C50909CF0909C0509090600FE70888004
:1025700080808870204005080806000040F88080B0
:10258000F08080F805080806000010F88080F080D0
:1025900080F805080806000020F88080F08080F8A8
:1025A00005080806000050F88080F08080F80308D5
:1025B000080601008040E040404040E00308080673
:1025C00001002040E040404040E0030808060100D0
:1025D00040A0E040404040E0030808060100A000A1
:1025E000E040404040E0050707060000F04848E8AA
:1025F0004848F0050808060000285088C8A89888B0
:1026000088050808060000402070888888887005C2
:10261000080806000010207088888888700508085F
:102620000600002050708888888870050808060019
:1026300000285070888888887005080806000050B7
:10264000007088888888700505050600008850207D
:102650005088050707060000709898A8C8C870053C
:1026600008080600004020888888888870050808C7
:1026700006000010208888888888700508080600F1
:1026800000205000888888887005080806000050DF
:10269000008888888888700508080600001020884F
:1026A000885020202005070706000080F088F08071
:1026B0008080050707060000708890A09088B0050C
:1026C000080806000040200070087888780508088F
:1026D00006000010200070087888780508080600B9
:1026E0000020500070087888780508080600002847
:1026F00050007008788878050707060000500070C1
:1027000008788878050808060000205020700878AE
:10271000887806050506000078147C907C0507077C
:102720000600FE70888088702040050808060000BA
:102730004020007088F8807005080806000010200E
:10274000007088F8807005080806000020500070AE
:1027500088F8807005070706000050007088F88030
:1027600070030808060100804000C0404040E003BC
:102770000808060100408000C0404040E00308080F
:1027800006010040A000C0404040E0060A0A0600E2
:10279000FEA4A800FC8480808084FC060A0A06004F
:1027A000FE549400FC8404040484FC05080806001C
:1027B00000285000B0C88888880508080600004036
:1027C00020007088888870040A0A0602FE30408063
:1027D00090909090909090040A0A0600FEC02010FD
:1027E00090909090909090060707060001448C8C82
:1027F0008480403C06070706000188C4C48404089E
:10280000F00505050600012000F80020050808066F
:10281000000040F0C8888898781005080806000075
:10282000E0F88888888888F80505050600012030CA
:10283000F830200508080600002070F8202020202D
:10284000E00509090600FF2070A8A8B88888502074
:102850000509090600FFE080C0B0A8A830282805B7
:1028600009090600FFF8A88888888888A8F8050A5A
:102870000A0600FE205050505088A8A8887000001A
:1028800030000000018600000006018000001800F2
:1028900060000060001800018000060006000001D2
:1028A000800780000780066000198006180061809C
:1028B00006060181800631863180061C78F9800683
:1028C0000631CD800603330D800603370D800603E5
:1028D000330D800616330D80060C330D800606334B
:1028E0000D800603330980064333198006633331B4
:1028F00080063333E180031B33830000CE360C00A7
:102900000030303000000C30C00000033300000005
:1029100000FC0000000000000000000000000000BB
:10292000000000007FFFE00000000000007000E0F9
:1029300000000000000061F860000000000000419D
:10294000F82000000000000040F02000000000001F
:10295000004060200000000000005801A07F8000BF
:102960004104005C63A0FBC0002082005EF7A0F37E
:10297000C0002082005EF7A0EBC0004104005C6351
:10298000A07B80008208005801A07B800104100019
:10299000406020FBC00104100040F020FBC000821A
:1029A000080041F820FFC00041040061F8603F00CA
:1029B000000000007000E01E0001FFFF807FFFE0CC
:1029C0000C0001FFFF800000000000000000007FFD
:1029D000FFE00000000000007000E00000000000C8
:1029E0000061F86000000000000041F820000000D5
:1029F00000000040F02000000000000040602000C7
:102A000000000000005801A07F80004104005C63CA
:102A1000A0FBC0002082005EF7A0F3C0002082006F
:102A20005EF7A0EBC0004104005C63A07B800082E5
:102A300008005801A07B8001041000406020FBC00A
:102A40000104100040F020FBC00082080041F82083
:102A5000FFC00041040061F8603F0000000000700A
:102A600000E01E0001FFFF807FFFE00C0001FFFF80
:102A700080000000B02000B02000B02000B0200096
:102A80002D2D3A2D2D0056657273696F6E004D32F3
:102A90003100496E69742E205344206361726400D2
:102AA0004E6F2053442063617264004D3231004305
:102AB00068616E67652053442063617264005072E0
:102AC000696E742066726F6D2053440053746F708A
:102AD000207072696E7400526573756D6520707236
:102AE000696E74005061757365207072696E740050
:102AF000436F6E66696775726174696F6E00436FCC
:102B00006E74726F6C00506F736974696F6E0050F1
:102B10007265706172650054756E6500496E666F0E
:102B20002053637265656E00F92E2E00F8526566BB
:102B300072657368004D61696E004D3234004D322C
:102B400033202573004D383420582059205A204511
:102B500000526573746F7265206661696C7361669B
:102B600065004C6F6164206D656D6F727900537400
:102B70006F7265206D656D6F7279004D6F74696F4E
:102B80006E0054656D7065726174757265004D619B
:102B9000696E004573746570732F6D6D00457374B5
:102BA0006570732F6D6D005A73746570732F6D6D42
:102BB000005A73746570732F6D6D0059737465706E
:102BC000732F6D6D005973746570732F6D6D0058A0
:102BD00073746570732F6D6D005873746570732F07
:102BE0006D6D00412D7265747261637400412D72C8
:102BF00065747261637400416D6178206500416D98
:102C00006178206500416D6178207A00416D6178BE
:102C1000207A00416D6178207900416D61782079DA
:102C200000416D6178207800416D61782078005610
:102C300054726176206D696E005654726176206D13
:102C4000696E00566D696E00566D696E00566D6155
:102C500078206500566D6178206500566D6178209A
:102C60007A00566D6178207A00566D61782079007F
:102C7000566D6178207900566D6178207800566D28
:102C8000617820780056652D6A65726B0056652D57
:102C90006A65726B00567A2D6A65726B00567A2DE2
:102CA0006A65726B005678792D6A65726B0056788A
:102CB000792D6A65726B00416363656C00416363E3
:102CC000656C00436F6E74726F6C0050726568655E
:102CD00061742041425320636F6E660050726568D4
:102CE00065617420504C4120636F6E66005049440A
:102CF0002D43005049442D43005049442D44005079
:102D000049442D44005049442D49005049442D491F
:102D1000005049442D50005049442D5000436F6EDF
:102D200074726F6C0053746F7265206D656D6F7295
:102D3000790042656400426564004E6F7A7A6C6582
:102D4000004E6F7A7A6C650046616E20737065651F
:102D5000640046616E2073706565640054656D7033
:102D6000657261747572650053746F7265206D656C
:102D70006D6F72790042656400426564004E6F7A3F
:102D80007A6C65004E6F7A7A6C650046616E2073CE
:102D9000706565640046616E2073706565640054FB
:102DA000656D706572617475726500466C6F770051
:102DB000466C6F770046616E2073706565640046EF
:102DC000616E2073706565640042656400426564ED
:102DD000004E6F7A7A6C65004E6F7A7A6C650043AC
:102DE0006F6F6C646F776E004D38340044697361A7
:102DF000626C65207374657070657273004D6169F3
:102E00006E00473238004175746F20686F6D650041
:102E10004D6F76652061786973004D61696E004D74
:102E20006F766520302E316D6D004D6F76652031E7
:102E30006D6D004D6F76652031306D6D00506F7394
:102E40006974696F6E004578747275646572004DBF
:102E50006F7665205A004D6F76652059004D6F766C
:102E6000652058004D6F766520617869730045785C
:102E7000747275646572005A00590058005072658A
:102E800068656174204142530050726568656174E1
:102E900020504C41004D61696E004D36303000438A
:102EA00068616E67652066696C616D656E74004669
:102EB0006C6F7700466C6F770046616E20737065AB
:102EC00065640046616E20737065656400426564E8
:102ED00000426564004E6F7A7A6C65004E6F7A7AB4
:102EE0006C65005370656564005370656564004DE2
:102EF00061696E000000000000000000000000009A
:102F000000000000000000000000000000000000C1
:102F100000000000000000000000000000000000B1
:102F200000000000000000000000000000000000A1
:102F30001F8FF8000FFC0000F80000000000007B6D
:102F4000E7BE00079E0000F800000000000079E7DF
:102F50009E00078E0000000000E000000079E78E70
:102F60000007860000000000E000000001E78E007E
:102F7000078E0000000001E000000003C78E00077C
:102F80009EFFE3F0FFC7FE1FCFFE0F878E0007FCFA
:102F90001FE0F07DE1E03DE1FF01E78E0007801ECC
:102FA00000F078E1E078E1E001E78E0007801C00A6
:102FB000F078E1E07FE1C000E78E0007801C00F0C0
:102FC00078E1E07801C078E78E0007801C00F07897
:102FD000E1E07801C079E79E0007801C00F078E00E
:102FE000EE78E1C079E7BE0007801C00F078E0EEE3
:102FF0003DE1C03FCFF8000FC0FF83FEFFE0FC1FA4
:10300000CFF80000000000000000000000000000F9
:1030100000000000000000000000000000000000B0
:1030200000000000000000000000000000000000A0
:103030000000000000000000000000000000000090
:103040000000000000000000000000000000000080
:1030500000000000000000000000000056657273D0
:10306000696F6E3A20414E45542056322E30004D45
:1030700061696E0000091200FC0A01E803D720FF15
:10308000FD0EFD0BFD00000009000E010B0B0904F5
:10309000008080808080808000008080040404099B
:1030A000030790909090080A0A090000242424FF46
:1030B0002424FF242424070B0B0901FF107C929089
:1030C00050381412927C10070A0A09010042A4A485
:1030D000481010244A4A84070A0A090100609090A7
:1030E00090606294889462010404090407808080DF
:1030F00080030C0C0903FF2040408080808080808A
:10310000404020030C0C0903FF8040402020202079
:1031100020204040800707070901031092543854CB
:103120009210070707090101101010FE101010027D
:1031300004040904FEC0C04080070101090104FE27
:10314000020202090400C0C0070A0A0901000204C1
:103150000408101020404080070A0A090100384482
:103160008282828282824438070A0A090100103072
:1031700050901010101010FE070A0A090100384480
:1031800082020408102040FE070A0A090100FE021C
:103190000408180402028478070A0A090100040CD2
:1031A00014244484FE040404070A0A090100FE8072
:1031B0008080F80402028478070A0A0901003C4072
:1031C0008080B8C482824438070A0A090100FE02DE
:1031D0000404080810101010070A0A0901003844F6
:1031E0008244384482824438070A0A09010038447C
:1031F0008282463A02020478020707090400C0C02E
:10320000000000C0C00209090904FEC0C00000009F
:10321000C0C0408005090909020008102040804014
:10322000201008070404090102FE0000FE05090938
:10323000090200804020100810204080070A0A0977
:10324000010038448202040810100010070A0A091D
:10325000010038449AAAAAAAAA9C403C070A0A0973
:10326000010010282828447C44828282070A0A0927
:103270000100F8848284F884828284F8070A0A09AB
:1032800001003C42808080808080423C070A0A091D
:103290000100F88482828282828284F8070A0A0905
:1032A0000100FE808080F880808080FE070A0A0985
:1032B0000100FE808080F88080808080070A0A09F3
:1032C000010038448280808E82824438070A0A09CD
:1032D000010082828282FE8282828282050A0A093B
:1032E0000200F82020202020202020F8070A0A09C8
:1032F00001003E080808080808888870070A0A09BB
:10330000010082848890A0D088848282070A0A09FA
:103310000100808080808080808080FE070A0A090A
:1033200001008282C6AA928282828282070A0A09E8
:1033300001008282C2A2928A86828282070A0A09D8
:1033400001007C82828282828282827C070A0A0950
:103350000100F884828284F880808080080B0B0949
:1033600001FF384482828282828A443A01070A0A33
:10337000090100F884828284F890888482070A0A0E
:103380000901007C8280807C020202827C070A0A9A
:10339000090100FE101010101010101010070A0A7A
:1033A00009010082828282828282824438070A0A6C
:1033B00009010082828244444428282810070A0A0E
:1033C0000901008282828292929292AA44070A0A9A
:1033D00009010082824428101028448282070A0AC8
:1033E00009010082824428101010101010070A0AE8
:1033F000090100FE0204081020408080FE040C0C2D
:103400000903FFF080808080808080808080F007CA
:103410000A0A090100804040201010080404020438
:103420000C0C0902FFF010101010101010101010EA
:10343000F00704040901061028448208010109006C
:10344000FFFF03030309030A804020070707090160
:10345000007C02027E82867A070A0A0901008080C7
:1034600080BCC2828282C2BC0707070901007C823D
:10347000808080827C070A0A0901000202027A86A3
:10348000828282867A0707070901007C8282FE8099
:10349000827C070A0A0901001C22222020F8202031
:1034A0002020070A0A0901FD7A84848478807C82BE
:1034B000827C070A0A090100808080BCC282828265
:1034C0008282050A0A090200600000E02020202014
:1034D00020F8050D0D0902FD18000038080808083D
:1034E0000808888870070A0A09010080808084889B
:1034F00090B0C88482050A0A090200E0202020203A
:1035000020202020F8070707090100EC92929292F0
:103510009282070707090100BCC282828282820769
:1035200007070901007C82828282827C070A0A09DD
:1035300001FDB8C4828282C4B8808080070A0A096B
:1035400001FD3A46828282463A02020207070709D3
:1035500001009C6242404040400707070901007C8F
:1035600082807C02827C0709090901002020FC205E
:10357000202020221C070707090100828282828204
:10358000867A070707090100828244442828100729
:1035900007070901008282929292AA44070707094D
:1035A000010082442810284482070A0A0901FD42CA
:1035B000422424241818109060070707090100FE10
:1035C0000408102040FE060B0B0902001C202020DE
:1035D00020C0202020201C010C0C0904FF808080CA
:1035E000808080808080808080060B0B090100E055
:1035F000101010100C10101010E007030309010741
:1036000062928CFFFFFFFFFFFFFFFFFFFFFFFFFF47
:10361000FFFFFFFFFFFFFFFFFFFFFFFFFFFFFFFFBA
:10362000FFFFFFFF00000009000E010B0B09040063
:1036300080800000808080808080800608080901EA
:103640000008789490A0A47840070A0A0901001C99
:10365000222020F8202060A25C07060609010382D0
:103660007C44447C82070A0A090100828244287C47
:10367000107C101010010B0B0904FF8080808080EB
:10368000008080808080040B0B0902FF60908060C6
:103690009090906010906003020209030BA0A008B4
:1036A00009090900013C4299A5A1A599423C0507D9
:1036B00007090103609070907800F8070808090175
:1036C000011224489090482412060404090102FCC7
:1036D000040404050101090204F8080909090001AC
:1036E0003C42B9A5BDA9A5423C060101090109FC5E
:1036F00004040409030660909060070909090101A8
:10370000101010FE10101000FE04060609010460DF
:1037100090106080F004060609010460902010906B
:103720006003030309030A2040800709090901FE19
:103730008282828282C6BA8080070A0A0901007EDC
:103740008A8A8A7A0A0A0A0A0A020202090404C058
:10375000C00403030902FD2090600306060901046A
:1037600040C0404040E005060609010470888870AA
:1037700000F8070808090101904824121224489013
:10378000070A0A09010040C0404042E60A121A0630
:10379000070A0A09010040C040404CF2020C101E0A
:1037A000070A0A0901006090201092660A121A06A0
:1037B000070A0A0901001000101020408082827C54
:1037C000070E0E0901002010080010282828447C4C
:1037D00044828282070E0E09010008102000102882
:1037E0002828447C44828282070E0E09010010289A
:1037F000440010282828447C44828282070D0D0949
:10380000010034580010282828447C448282820712
:103810000D0D09010028280010282828447C448226
:103820008282070E0E09010010282810102828286F
:10383000447C44828282070A0A0901001E28282843
:103840004E784888888E070D0D0901FD3C42808026
:1038500080808080423C082418070E0E0901002059
:10386000100800FE808080F880808080FE070E0EA9
:1038700009010008102000FE808080F88080808090
:10388000FE070E0E09010010284400FE808080F81B
:1038900080808080FE070D0D090100282800FE8031
:1038A0008080F880808080FE050E0E090200402096
:1038B0001000F82020202020202020F8050E0E09DE
:1038C000020010204000F82020202020202020F896
:1038D000050E0E09020020508800F820202020202C
:1038E000202020F8050D0D090200505000F820207E
:1038F000202020202020F8070A0A090100784442ED
:1039000042F24242424478070D0D0901003458004A
:103910008282C2A2928A86828282070E0E090100EA
:10392000201008007C82828282828282827C070E42
:103930000E090100081020007C828282828282822D
:10394000827C070E0E090100102844007C828282CE
:1039500082828282827C070D0D0901003458007C2E
:1039600082828282828282827C070D0D0901002878
:1039700028007C82828282828282827C07070709F9
:10398000010182442810284482070C0C0901FF021F
:103990007C868A8A9292A2A2C27C80070E0E0901BE
:1039A000002010080082828282828282824438074C
:1039B0000E0E09010008102000828282828282821B
:1039C000824438070E0E09010010284400828282CA
:1039D00082828282824438070D0D09010028280066
:1039E00082828282828282824438070E0E0901001E
:1039F0000810200082824428101010101010070AAE
:103A00000A0901008080FC828282FC808080060A94
:103A10000A09010038444448D04844444458070B3C
:103A20000B090100201008007C02027E82867A07C2
:103A30000B0B090100081020007C02027E82867AAE
:103A4000070B0B090100102844007C02027E8286CD
:103A50007A070A0A0901003458007C02027E828635
:103A60007A070A0A0901002828007C02027E828661
:103A70007A070C0C09010010282810007C02027E35
:103A800082867A0707070901006C12127E90926CF9
:103A9000070A0A0901FD7C82808080827C10483000
:103AA000070B0B090100201008007C8282FE808237
:103AB0007C070B0B090100081020007C8282FE802D
:103AC000827C070B0B090100102844007C8282FED7
:103AD00080827C070A0A0901002828007C8282FE75
:103AE00080827C050C0C0902008040200000E02050
:103AF00020202020F8050C0C0902001020400000B6
:103B0000E02020202020F8050C0C0902002050881D
:103B10000000E02020202020F8050B0B09020050B7
:103B2000500000E02020202020F8070B0B090100A6
:103B3000483050083C448282824438070A0A09010E
:103B400000345800BCC28282828282070B0B0901BA
:103B500000201008007C82828282827C070B0B0985
:103B60000100081020007C82828282827C070B0B7D
:103B7000090100102844007C82828282827C070A2C
:103B80000A0901003458007C82828282827C070A02
:103B90000A0901002828007C82828282827C07092F
:103BA0000909010010381000FE001038100709093B
:103BB0000901FF027C8A8A92A2A27C80070B0B0972
:103BC0000100402010008282828282867A070B0BDD
:103BD000090100081020008282828282867A070B07
:103BE0000B090100102844008282828282867A07B3
:103BF0000A0A0901002828008282828282867A07C6
:103C00000E0E0901FD040810004242242424181855
:103C1000109060070B0B0901FE8080B8C48282827D
:103C2000C4B88080070D0D0901FD24240042422400
:103C30002424181810906000002100240027002A76
:103C40000000002200250028002B00000020002397
:103C500000260029000202020202020202040404F9
:103C60000404040404030303030303030301010125
:103C70000101010101010204081020408001020439
:103C8000081020408001020408102040808040205D
:103C90001008040201000000010200000000000002
:103CA0000004030706000000000000000000000000
:103CB000000000000002494E46494E4954594E4109
:103CC0004ECDCCCC3D0AD7233C17B7D13877CC2B7F
:103CD000329595E6241FB14F0A000020410000C82C
:103CE0004200401C4620BCBE4CCA1B0E5AAEC59DAD
:103CF0007400993B7C3E21D38DDC753E11241FBEA0
:103D0000CFEFD0E4DEBFCDBF13E0A0E0B1E0ECED3B
:103D1000FFED01E00BBF02C007900D92A237B10783
:103D2000D9F71BBE14E1A2E7B3E001C01D92AB308E
:103D3000B107E1F71CE3CAEFDCE304C02297FE0100
:103D40000E9493EFC23FD107C9F70E941EE70C946F
:103D5000E1EF0C940000A0E0B0E0E1EBFEE10C9498
:103D6000B0EFEC015B016115710519F0FB01918366
:103D70008083F9908F2D90E00E9497EF892BC9F7EF
:103D8000FDE2FF1621F4F990EE24E39405C02BE246
:103D9000F21609F4F990EE248E0101501040C8018A
:103DA00066EB7CE343E050E00E944121892B01F562
:103DB0008E010E5F1F4FC80169EB7CE345E050E0C8
:103DC0000E944121892B19F48E01095F1F4FA11414
:103DD000B10419F0F50111830083E0FC04C070E028
:103DE00090E080E814C070E090E080E86FEF08C1D8
:103DF000C8016EEB7CE343E050E00E944121892B37
:103E000069F4A114B10429F470E090E080EC6FE74C
:103E1000F7C02296F501D183C083F6CF8824992478
:103E200040E050E060E070E0EF2DE053EA30A0F5B4
:103E3000F2E0EF2A8E2D90E09C0128703070E2FEB7
:103E400006C0232B79F50894811C911C2BC0232BD1
:103E500019F0089481089108DB01CA0112E0880F6B
:103E6000991FAA1FBB1F1A95D1F7480F591F6A1F28
:103E70007B1F440F551F661F771F4E0F511D611D7D
:103E8000711D483929E9520729E9620729E17207BA
:103E900048F084E0E82A06C0EE3F31F4E3FC39C084
:103EA00098E0E92AF990C0CFE53311F0E53189F5C2
:103EB00029912D3219F4E0E1EE2A05C02B3219F0D8
:103EC00081E090E003C0299182E090E0E22FE0538E
:103ED000EA3018F0C81BD90B1CC020E030E0FCE031
:103EE00020383F075CF4C901880F991F880F991F7C
:103EF000280F391F220F331F2E0F311DE991E05378
:103F0000EA3068F3E4FE03C0309521953F4F820EFE
:103F1000931ECE2CDD24E1FE07C0A114B10421F0D4
:103F20002197F501D183C083CB01BA010E94FCEB3C
:103F30007B018C01F3E0CF22DD2423E0C216D10403
:103F400021F417FB109517F9109557016801C80166
:103F5000B70120E030E040E050E00E945CEB8823B5
:103F600009F44AC097FE0DC025EDE22E2CE3F22E97
:103F70009094819491089394C0E2D0E000E010E026
:103F800012C09DEEE92E9CE3F92EF6CFF7012591A4
:103F9000359145915491C601B5010E943CEE5B01FB
:103FA0006C018C1A9D0A8C169D0684F7D595C795D1
:103FB0000F5F1F4F0630110529F08CEF9FEFE80EC1
:103FC000F91EF1CFC501D6017C018D018C2D880F22
:103FD0008D2D881F8F3F51F0C601B50120E030E0E4
:103FE00040E050E00E945CEB882331F482E290E0F4
:103FF00090930A14809309147E2D9F2D802F612F9A
:10400000272F392F482F562FB901CA01CDB7DEB758
:10401000ECE00C94CCEF2F923F925F926F927F92E4
:104020008F929F92AF92BF92CF92DF92EF92FF92C8
:104030000F931F93CF93DF938C011B01EA0161154E
:10404000710519F0FB0191838083209749F0CE011F
:104050000297839728F020E030E040E050E0F6C07F
:10406000F801A1908F018A2D90E00E9497EF892B93
:10407000B9F7FDE2AF1631F4F801A1908F01552494
:10408000539407C0FBE2AF1619F4F801A1908F0119
:104090005524209719F0C031D105C1F4F0E3AF16D3
:1040A00079F4F8018081883711F0883549F4F801F6
:1040B000A1800E5F1F4FF2E05F2AC0E1D0E006C092
:1040C000209721F480E3A816E9F427C0C830D10571
:1040D00031F1C930D10524F4C230D10531F50CC01D
:1040E000CA30D10589F0C031D105F9F4C12CD12CE9
:1040F000E12CB8E0FB2E28C0C12CD12CE12CA0E48F
:10410000FA2E22C0CAE0D0E0FCECCF2EFCECDF2E71
:10411000FCECEF2EFCE0FF2E17C0C8E0D0E0C12C75
:10412000D12CE12CE0E1FE2E0FC09E01442737FD8B
:104130004095542F60E070E080E090E80E9454EFDA
:10414000C901DA016C017D0120E030E040E050E07F
:1041500060E03E01882477FC8094982C70EDB72EA7
:10416000BA0CE9E0EB1570F48A2D81548A3118F409
:1041700099ECB92E06C08A2D81568A3150F589EA0C
:10418000B82EBA0C8B2D90E08C179D0714F56F3F5D
:10419000E1F0C216D306E406F506B0F0CA01B90193
:1041A000A40193010E940EEF9B01AC012B0D311D68
:1041B000411D511D2130F0E03F07F0E04F07F0E8CE
:1041C0005F0710F461E001C06FEFF801A1908F016B
:1041D000C5CF2114310481F0662331F00150104025
:1041E000F1011183008308C051FE1AC00250104033
:1041F000F1011183008314C067FF12C050FC05C099
:104200002FEF3FEF4FEF5FE704C020E030E040E0EA
:1042100050E882E290E090930A148093091416C04B
:1042200050FE08C050954095309521953F4F4F4F17
:104230005F4F0CC057FF0AC082E290E090930A14CF
:10424000809309142FEF3FEF4FEF5FE7B901CA01E9
:10425000DF91CF911F910F91FF90EF90DF90CF9062
:10426000BF90AF909F908F907F906F905F903F90A6
:104270002F900895FB01DC0105900D920020E1F7DD
:104280000895FB01DC014150504088F08D9181344C
:104290001CF08B350CF4805E659161341CF06B353D
:1042A0000CF4605E861B611171F3990B0895881BF5
:1042B000FCCFFB01DC014150504048F005900D92CD
:1042C0000020C9F701C01D9241505040E0F7089509
:1042D000FB0155915523A9F0BF01DC014D91451714
:1042E0004111E1F759F4CD010590002049F04D91BD
:1042F00040154111C9F3FB014111EFCF81E090E07E
:1043000001970895FB01DC0104C08D910190801993
:1043100021F441505040C8F7881B990B0895FB01C8
:10432000DC0102C001900D9241505040D8F7089531
:10433000FB01DC010D900020E9F7119701900D922F
:104340000020E1F70895FC018191861721F0882370
:10435000D9F7992708953197CF010895FB01DC0122
:1043600001900D920020E1F70895FB01DC0141501E
:10437000504030F08D910190801919F40020B9F768
:10438000881B990B0895FB01DC014150504048F017
:1043900001900D920020C9F701C01D92415050407C
:1043A000E0F70895AEE0B0E0E8EDF1E20C94B8EF8C
:1043B0000D891E898EE08C831A8309838FEF9FE716
:1043C0009E838D839E01275E3F4FCE0101966F89AC
:1043D000788DA9010E94F6212F813885020F131FC5
:1043E000F80110822E96E4E00C94D4EFABE0B0E03C
:1043F000ECEFF1E20C94AAEF3C012B015A01FC0115
:1044000017821682838181FD03C06FEF7FEFC6C1E3
:104410009AE0892E1E010894211C311CF30123818E
:10442000F20123FD859123FF81912F01882309F457
:10443000B2C1853239F423FD859123FF81912F018B
:10444000853229F490E0B3010E94E923E7CF982F49
:10445000FF24EE249924FFE1FF15D0F09B3269F090
:104460009C3228F4903259F0933291F40EC09D3270
:1044700049F0903369F441E024C052E0F52A84E029
:10448000F82A28C098E0F92A25C0E0E1FE2A22C0D7
:10449000F7FC29C0892F80538A3070F4F6FE05C0DE
:1044A000989C902C1124980E15C0E89CE02C1124A7
:1044B000E80EF0E2FF2A0EC09E3229F4F6FC6BC132
:1044C00040E4F42A07C09C3619F450E8F52A02C0EB
:1044D000983649F4F20123FD959123FF91912F0124
:1044E000992309F0B8CF892F8554833018F0805272
:1044F000833038F444E050E0A40EB51E5FE35983E6
:104500000FC0933631F0933779F0933509F056C0E8
:1045100020C0F5018081898342E050E0A40EB51EE1
:10452000610101E010E012C0F501C080D180F6FC0D
:1045300003C06FEF7FEF02C0692D70E042E050E0F2
:10454000A40EB51EC6010E94DE238C015FE7F52292
:1045500014C0F501C080D180F6FC03C06FEF7FEF7F
:1045600002C0692D70E042E050E0A40EB51EC60105
:104570000E94D3238C0150E8F52AF3FE07C01AC02D
:1045800080E290E0B3010E94E923EA948E2D90E04E
:1045900008171907A8F30EC0F601F7FC8591F7FE7E
:1045A00081916F0190E0B3010E94E923E110EA9448
:1045B000015010400115110579F7EAC0943611F049
:1045C000993669F5F7FE08C0F501208131814281F5
:1045D000538184E090E00AC0F501808191819C01C3
:1045E000442737FD4095542F82E090E0A80EB91E75
:1045F0009FE6F92257FF09C05095409530952195C7
:104600003F4F4F4F5F4FE0E8FE2ACA01B901A101B9
:104610002AE030E00E941524D82ED21840C09537E9
:1046200029F41F2D1F7E2AE030E01DC01F2D197FA9
:104630009F3661F0903720F4983509F0ACC00FC078
:10464000903739F0983709F0A6C004C028E030E070
:104650000AC0106114FD146020E130E004C014FDB4
:10466000166020E132E017FF08C0F501608171811A
:104670008281938144E050E008C0F50180819181FE
:10468000BC0180E090E042E050E0A40EB51EA10124
:104690000E941524D82ED2188FE7F82EF122F6FEAC
:1046A0000BC05EEFF522D91438F4F4FE07C0F2FC1B
:1046B00005C08FEEF82202C01D2D01C0192DF4FE99
:1046C0000DC0FE01ED0DF11D8081803319F499EECE
:1046D000F92208C01F5FF2FE05C003C08F2D867847
:1046E00009F01F5F0F2DF3FC14C0F0FE0FC01E1564
:1046F00010F09D2C0BC09D2C9E0C911A1E2D06C0F7
:1047000080E290E0B3010E94E9231F5F1E15C0F311
:1047100004C01E1510F4E11A01C0EE2404FF0FC0FE
:1047200080E390E0B3010E94E92302FF1DC001FD78
:1047300003C088E790E00EC088E590E00BC0802FB2
:10474000867891F001FF02C08BE201C080E2F7FCA5
:104750008DE290E0B3010E94E92306C080E390E07F
:10476000B3010E94E9239A94D914C0F3DA94F101B9
:10477000ED0DF11D808190E0B3010E94E923DD2061
:10478000A9F706C080E290E0B3010E94E923EA9411
:10479000EE20C1F743CEF30166817781CB012B96E2
:1047A000E2E10C94C6EFFC010590615070400110ED
:1047B000D8F7809590958E0F9F1F0895FC0161504A
:1047C000704001900110D8F7809590958E0F9F1F33
:1047D00008950F931F93CF93DF938C01EB018B818F
:1047E00081FF1BC082FF0DC02E813F818C819D8186
:1047F0002817390764F4E881F9810193F983E88384
:1048000006C0E885F985802F0995892B31F48E81C2
:104810009F8101969F838E8302C00FEF1FEFC80117
:10482000DF91CF911F910F910895FA01AA272830A7
:1048300051F1203181F1E8946F936E7F6E5F7F4F6D
:104840008F4F9F4FAF4FB1E03ED0B4E03CD0670FE9
:10485000781F891F9A1FA11D680F791F8A1F911D3C
:10486000A11D6A0F711D811D911DA11D20D009F48C
:1048700068943F912AE0269F11243019305D3193CE
:10488000DEF6CF010895462F4770405D4193B3E0B7
:104890000FD0C9F7F6CF462F4F70405D4A3318F05E
:1048A000495D31FD4052419302D0A9F7EACFB4E00F
:1048B000A6959795879577956795BA95C9F70097C7
:1048C0006105710508959B01AC010A2E0694579568
:1048D000479537952795BA95C9F7620F731F841FBF
:1048E000951FA01D0895FC01138214820895FC01F8
:1048F0008481882311F081E083830895FC01838102
:104900008111138281E080830895CF93DF93DC01CE
:10491000FC01EA55FE4F808191810097C9F1019712
:1049200091838083ED01CB5ADF4FFD01EC58FF4F9F
:104930008BE1019009928150E1F7FD01ED5AFF4FA3
:10494000AE58BF4F8D919C911197A257B040918363
:104950008083FD01EC58FF4F20E030E0AD014A5567
:104960005E4F10C02F5F3F4FEF01DF015F968BE17D
:104970000D9009928150E1F7858D968D3297918344
:104980008083B196DA018D919C912817390750F3F5
:10499000DF91CF910895FC018BE493E091838083B4
:1049A0008781882321F0CF0104960E94A07B08957F
:1049B000CF92DF92EF92FF920F931F93DF93CF93EB
:1049C000CDB7DEB76F970FB6F894DEBF0FBECDBF81
:1049D0008C016B01085A1F4FD8018C91085510406B
:1049E000882321F420E3E22EF12C03C091E5E92E87
:1049F000F12CE00EF11E8BE493E09A8389831C82F4
:104A00001B8218861D82B7016C5F7F4FCE01059611
:104A1000A60121E00E94AE82882391F5E3EEF0E04A
:104A2000949108C08091C00085FFFCCF9093C60090
:104A3000319694919923B1F7E9EEF0E0949108C092
:104A40008091C00085FFFCCF9093C6003196949171
:104A50009923B1F709C08091C00085FFFCCF08946D
:104A6000C11CD11C9093C600F6019081992399F73F
:104A70008091C00085FFFCCF8AE08093C6005AC0B9
:104A8000F801EA55FE4F208131812A30310508F0C6
:104A900040C02F5F3F4F3183208321503040F901C8
:104AA00085E0EE0FFF1F8A95E1F7E21BF30BEC5850
:104AB000FF4FE00FF11F13C0AF01415E5F4FBF0119
:104AC0008BE1DB010D90BD01DA010D92AD0181504A
:104AD000C1F7929182913296968F858F7F97215060
:104AE0003040BFEF2E3F3B0739F7D801AC58BF4FDE
:104AF000F70134968BE101900D928150E1F70E5849
:104B00001F4FF70182819381D8018D939C930257A7
:104B10001040D801AB5ABF4FFE0135968BE1019092
:104B20000D928150E1F70D5A1F4F8B819C81F80146
:104B300091838083CE0101960E94CB246F960FB69D
:104B4000F894DEBF0FBECDBFCF91DF911F910F91C3
:104B5000FF90EF90DF90CF900895EF92FF920F9328
:104B60001F938C013FECE32E31E0F32EE80EF91E8B
:104B7000C7010E94527BC7010E94A07BF8011182ED
:104B800012821F910F91FF90EF900895CF92DF92C4
:104B9000EF92FF920F931F93CF93DF937C016B01F2
:104BA000DB010D900020E9F78D0101501040061B3C
:104BB000170BEFECF1E0EE0EFF1ED7011C92E1E3C4
:104BC000FEEFEE0EFF1ECB016EE470E00E94A3210B
:104BD000EC01009731F4F8013197EC0DFD1D8601D1
:104BE0000EC060E270E00E94A3218C010F5F1F4F96
:104BF000CE016AE270E00E94A321FC0131978DE0B2
:104C000081838AE082831382C70185539E4FB80156
:104C10000E94B0838FEC91E0E80EF91ED7018C91D1
:104C2000882319F1E3E1F1E0949108C08091C0007C
:104C300085FFFCCF9093C600319694919923B1F7EC
:104C4000EAE1F1E0949108C08091C00085FFFCCFBB
:104C50009093C600319694919923B1F78091C0004A
:104C600085FFFCCF8AE08093C600DF91CF911F9132
:104C70000F91FF90EF90DF90CF900895CF93DF9347
:104C8000EC018C81882309F43BC0E2E4F1E09491CB
:104C900008C08091C00085FFFCCF9093C60031967C
:104CA00094919923B1F7CC57DD4F488159816A819E
:104CB0007B81C458D24086EF93E02AE030E00E9426
:104CC000343CE0E4F1E0949108C08091C00085FF9D
:104CD000FCCF9093C600319694919923B1F7C458B4
:104CE000DD4F488159816A817B8186EF93E02AE01C
:104CF00030E00E94343C8091C00085FFFCCF12C0A0
:104D0000E0E3F1E0949108C08091C00085FFFCCF02
:104D10009093C600319694919923B1F78091C00089
:104D200085FFFCCF8AE08093C600DF91CF91089584
:104D30002F923F924F925F926F927F928F929F92AB
:104D4000AF92BF92CF92DF92EF92FF920F931F9399
:104D5000DF93CF93CDB7DEB7AC970FB6F894DEBF35
:104D60000FBECDBF5C014B01FC018481882309F497
:104D700038C1C50181539E4F0E94A07BF50113826B
:104D80001A8A1D8A198A188A8BE493E09F878E8776
:104D90005FE4C52ED12CCA0CDB1C20E330E0A20E50
:104DA000B31EF601B182A08220ED3FEFA20EB31E2A
:104DB000F40180818F3209F090C0C4016FE270E08D
:104DC0000E94A3217C010894E11CF11C3E0108947F
:104DD000611C711C260142E1242E312C2C0E3D1E3B
:104DE00077C0C7016FE270E00E94A3216C010097B9
:104DF00009F481C0E816F90608F07DC08C010E198F
:104E00001F09C301B701A8010E94C321060D171D88
:104E1000F8011082F30107C08091C00085FFFCCF2C
:104E200031969093C60090819923B1F78091C0008C
:104E300085FFFCCFFAE0F093C600F201608171813A
:104E40006115710519F460E070E002C06C5F7F4F7E
:104E5000C101A30121E00E94AE82882371F5EEE733
:104E6000F1E0949108C08091C00085FFFCCF909341
:104E7000C600319694919923B1F7FE01319607C08F
:104E80008091C00085FFFCCF31969093C600908141
:104E90009923B1F7ECE7F1E0949108C08091C0004C
:104EA00085FFFCCF9093C600319694919923B1F77A
:104EB0008091C00085FFFCCF8DC02EE030E02C0F2C
:104EC0003D1FF2013183208376010894E11CF11C1F
:104ED000E114F10409F085CF0BC081E590E0A80E44
:104EE000B91EF601B182A0822FEA3FEFA20EB31ED7
:104EF000D82C092D02C0DE2C0F2D8FE490E0A80ED7
:104F0000B91EF5018081918121EB3FEFA20EB31E06
:104F1000009719F480E090E001C004966D2D702F89
:104F20000E948083882339F1EEE6F1E0949108C075
:104F30008091C00085FFFCCF9093C600319694917C
:104F40009923B1F78D2D902F9C01F90107C0809115
:104F5000C00085FFFCCF31969093C60090819923C5
:104F6000B1F784E892E0A80EB91EF5011082118213
:104F70001282138232C0E6E5F1E0949108C080917C
:104F8000C00085FFFCCF9093C60031969491992381
:104F9000B1F78D2D902F9C01F90107C08091C000C1
:104FA00085FFFCCF31969093C60090819923B1F78D
:104FB000E4E5F1E0949108C08091C00085FFFCCF4A
:104FC0009093C600319694919923B1F78091C000D7
:104FD00085FFFCCF8AE08093C600CE010E960E942A
:104FE000CB24AC960FB6F894DEBF0FBECDBFCF91E9
:104FF000DF911F910F91FF90EF90DF90CF90BF90C6
:10500000AF909F908F907F906F905F904F903F9068
:105010002F900895BF92CF92DF92EF92FF920F935D
:105020001F93CF93DF938C01EB018FE28993EE24E2
:10503000E394FF2476EAC72E71E0D72EC00ED11E6E
:105040006FE1B62E14C0FB9CC00111248C589F4FF9
:10505000800F911FBE010E94B27B02C02196E39493
:105060008881882319F08CE88E15C0F7F3942F2DD2
:1050700030E0F601808191812817390720F3E7FCA1
:1050800007C0C80181539E4FBE010E94B27B01C080
:105090001882DF91CF911F910F91FF90EF90DF90D9
:1050A000CF90BF9008952F923F924F925F926F9250
:1050B0007F928F929F92AF92BF92CF92DF92EF92A8
:1050C000FF920F931F93DF93CF93CDB7DEB7AD97CA
:1050D0000FB6F894DEBF0FBECDBF6C014B014DA7DC
:1050E000DC0114968C91882309F44AC3E2EDF1E0C7
:1050F000CE0EDF1ED6018C91EEE2FEEFCE0EDF1E4D
:10510000882309F419C1222309F0E1C02AEE31E015
:10511000C20ED31ED6018C91E6E1FEEFCE0EDF1E4D
:10512000882371F1E3E1F1E0949108C08091C0001F
:1051300085FFFCCF9093C600319694919923B1F7E7
:10514000E6E5F2E0949108C08091C00085FFFCCFB5
:105150009093C600319694919923B1F786EF93E02E
:1051600061E070E04AE050E00E94883C8091C0001D
:1051700085FFFCCF8AE08093C6000E94C53E00C335
:10518000E3EEF0E0949108C08091C00085FFFCCF71
:105190009093C600319694919923B1F7EDE3F2E034
:1051A000949108C08091C00085FFFCCF9093C60009
:1051B000319694919923B1F7F40107C08091C00012
:1051C00085FFFCCF31969093C60090819923B1F76B
:1051D000E2E3F2E0949108C08091C00085FFFCCF2B
:1051E0009093C600319694919923B1F7C6012FEEA2
:1051F00031E0C20ED31EB6010E940A284BEF5FEFCA
:10520000C40ED51ED6019C91E6E1FEEFCE0EDF1E48
:105210008DE8989FF0011124E151FE4FEC0DFD1D2A
:1052200007C08091C00085FFFCCF31969093C600E7
:1052300090819923B1F7ECE2F2E0949108C080915B
:10524000C00085FFFCCF9093C600319694919923BE
:10525000B1F724E832E0C20ED31ED6014D915D9124
:105260006D917C91ECE7FDEFCE0EDF1E86EF93E0B3
:105270002AE030E00E94343C8091C00085FFFCCFE2
:105280008AE08093C600A60146515E4FDA012C9158
:10529000E22FF0E0EE0FFF1FEE0FFF1FEC0DFD1DE4
:1052A000E551FE4F84E892E0C80ED91ED6014D901C
:1052B0005D906D907C908CE79DEFC80ED91E40826A
:1052C0005182628273822F5FDA012C932FC0E3EE4A
:1052D000F0E0949108C08091C00085FFFCCF9093CE
:1052E000C600319694919923B1F7EBE1F2E09491E5
:1052F00008C08091C00085FFFCCF9093C600319616
:1053000094919923B1F7F40107C08091C00085FF03
:10531000FCCF31969093C60090819923B1F780918C
:10532000C00085FFFCCF8AE08093C600C601815390
:105330009E4F0E94A07B39C0EAEEF1E0CE0EDF1E48
:10534000D6011C92E6E1FEEFCE0EDF1EE3EEF0E0AA
:10535000949108C08091C00085FFFCCF9093C60057
:10536000319694919923B1F7EAE0F2E0949108C064
:105370008091C00085FFFCCF9093C6003196949138
:105380009923B1F7F40107C08091C00085FFFCCFDD
:1053900031969093C60090819923B1F78091C00017
:1053A00085FFFCCF8AE08093C600D60113961C923D
:1053B0001A8A1D8A198A188A8BE493E09F878E8740
:1053C000FFE4AF2EB12CAC0CBD1CE0E3F0E0CE0E40
:1053D000DF1ED501CD92DC92E0EDFFEFCE0EDF1E99
:1053E000D4018C918F3209F090C0C4016FE270E05B
:1053F0000E94A3217C010894E11CF11C3E01089449
:10540000611C711C2501E2E12E2E312C2C0E3D1E5B
:1054100077C0C7016FE270E00E94A3215C01009792
:1054200009F481C0E816F90608F07DC08C010E1958
:105430001F09C301B701A8010E94C321060D171D52
:10544000F8011082F30107C08091C00085FFFCCFF6
:1054500031969093C60090819923B1F78091C00056
:1054600085FFFCCFFAE0F093C600D2016D917C91EC
:105470006115710519F460E070E002C06C5F7F4F48
:10548000C101A30121E00E94AE82882371F5E6EFFD
:10549000F1E0949108C08091C00085FFFCCF90930B
:1054A000C600319694919923B1F7FE01319607C059
:1054B0008091C00085FFFCCF31969093C60090810B
:1054C0009923B1F7E4EFF1E0949108C08091C00016
:1054D00085FFFCCF9093C600319694919923B1F744
:1054E0008091C00085FFFCCF1BC12EE030E02C0F67
:1054F0003D1FF2013183208375010894E11CF11CEA
:10550000E114F10409F085CF0BC041E550E0C40E71
:10551000D51ED501CD92DC92EFEAFFEFCE0EDF1E55
:10552000082DF92C01C00E2DF601E15BFF4F2DA5D2
:10553000222309F4B1C0608171816115710519F4EC
:1055400060E070E002C06C5F7F4FC60181539E4FE8
:10555000402F5F2D21E00E94AE82882309F46CC0A9
:1055600040EE51E0C40ED51ED6014D915D916D9176
:105570007C91ECE9F0E0CE0EDF1ED6014D935D93F9
:105580006D937C931397E4E8FDEFCE0EDF1EE6EEFD
:10559000F1E0949108C08091C00085FFFCCF90930A
:1055A000C600319694919923B1F7802F9F2D9C01CD
:1055B000F90107C08091C00085FFFCCF3196909320
:1055C000C60090819923B1F7EEEDF1E0949108C007
:1055D0008091C00085FFFCCF9093C60031969491D6
:1055E0009923B1F786EF93E02AE030E00E94343C43
:1055F0008091C00085FFFCCF8AE08093C60024E83C
:1056000032E0C20ED31ED6011D921D921D921C9235
:105610001397E0EDF1E0949108C08091C00085FF00
:10562000FCCF9093C600319694919923B1F7809165
:10563000C00085FFFCCF99C0ECEBF1E0949108C06D
:105640008091C00085FFFCCF9093C6003196949165
:105650009923B1F7802F9F2D9C01F90107C08091FC
:10566000C00085FFFCCF31969093C60090819923AE
:10567000B1F7EAEBF1E0949108C08091C00085FF9A
:10568000FCCF9093C600319694919923B1F7809105
:10569000C00085FFFCCF44C0608171816115710538
:1056A00019F460E070E002C06C5F7F4FC601815367
:1056B0009E4F402F5F2D26E50E94AE82882309F081
:1056C00033C0E6EAF1E0949108C08091C00085FF04
:1056D000FCCF9093C600319694919923B1F7802F17
:1056E0009F2D9C01F90107C08091C00085FFFCCF70
:1056F00031969093C60090819923B1F7E4EAF1E0E6
:10570000949108C08091C00085FFFCCF9093C600A3
:10571000319694919923B1F78091C00085FFFCCF19
:105720008AE08093C60028C081E0F6018183E2E927
:10573000F1E0949108C08091C00085FFFCCF909368
:10574000C600319694919923B1F7F40107C0809176
:10575000C00085FFFCCF31969093C60090819923BD
:10576000B1F78091C00085FFFCCF8AE08093C6002E
:10577000802F9F2D0E94B3D3CE010E960E94CB2482
:10578000AD960FB6F894DEBF0FBECDBFCF91DF91BF
:105790001F910F91FF90EF90DF90CF90BF90AF904F
:1057A0009F908F907F906F905F904F903F902F9041
:1057B0000895EF92FF920F931F93CF93DF93EC0125
:1057C0000E9464898E0106511E4FD8018C919FEC76
:1057D000E92E91E0F92EEC0EFD1E8823A1F1C70100
:1057E0000E94A07BF8016081615060838DE8689F12
:1057F000B001112461517E4F6C0F7D1FCE0141E03D
:1058000021E00E945328D801EC91F0E0EE0FFF1F39
:10581000EE0FFF1FEC0FFD1FE551FE4F4081518140
:1058200062817381CC57DD4F488359836A837B83C0
:10583000C458D240C7010E94887A8C81882389F19C
:1058400081E08B832EC00E944189C7010E94A07B0A
:105850001B8287ED90E00E9407608091F908882301
:1058600001F11092F9088091AF06C82FD0E0CC0F5B
:10587000DD1FC35CDF4E68817981882777FD8095C5
:10588000982F0E94FEEB209191023091920240915C
:105890009302509194020E946AED181614F4198232
:1058A0001882DF91CF911F910F91FF90EF90089593
:1058B000FC0181E08283CF0140E021E00E94532877
:1058C0000895EF92FF920F931F93CF93DF938C0174
:1058D000FC01148287A9882321F0C801C4960E9484
:1058E000A07B28EAE22E21E0F22EE00EF11EC70195
:1058F00060E04FE10E944679882309F5E3EEF0E08D
:10590000949108C08091C00085FFFCCF9093C600A1
:10591000319694919923B1F7E7ECF2E0949108C0A5
:105920008091C00085FFFCCF9093C6003196949182
:105930009923B1F78091C00085FFFCCF7DC0E801BD
:10594000C355DE4FCE01B70141E00E944584882354
:1059500041F5CE01B70140E00E944584882309F556
:10596000E3E1F1E0949108C08091C00085FFFCCF95
:105970009093C600319694919923B1F7E4EBF2E04D
:10598000949108C08091C00085FFFCCF9093C60021
:10599000319694919923B1F78091C00085FFFCCF97
:1059A0004BC0C801C496BE010E94A17E882309F5A0
:1059B000E3E1F1E0949108C08091C00085FFFCCF45
:1059C0009093C600319694919923B1F7E4EAF2E0FE
:1059D000949108C08091C00085FFFCCF9093C600D1
:1059E000319694919923B1F78091C00085FFFCCF47
:1059F00023C081E0F8018483E3EEF0E0949108C0D5
:105A00008091C00085FFFCCF9093C60031969491A1
:105A10009923B1F7E9E9F2E0949108C08091C000C0
:105A200085FFFCCF9093C600319694919923B1F7EE
:105A30008091C00085FFFCCF8AE08093C600D8012A
:105A4000AB5ABF4FF801F4968BE101900D92815053
:105A5000E1F7F80182A993A90D5A1F4FF80191832C
:105A6000808303551040C801C096015B1F4FF801A9
:105A700091838083DF91CF911F910F91FF90EF90E1
:105A800008952F923F924F925F926F927F929F92D2
:105A9000AF92BF92CF92DF92EF92FF920F931F933C
:105AA000DF93CF93CDB7DEB7CC55D0400FB6F89487
:105AB000DEBF0FBECDBF6C01662311F528E832E0D2
:105AC000C20ED31ED6018C91E8E7FDEFCE0EDF1E8D
:105AD000882309F4E6C020E832E0C20ED31ED601C6
